:020000040800F2
:10000000B0630020DD010008714E0008874700083A
:100010006D4E0008DB0A00088D5F0008000000003C
:100020000000000000000000000000004501000882
:10003000510B0008000000008901000875520008FB
:10004000F7010008F7010008F7010008F7010008B0
:10005000F7010008F7010008F7010008F7010008A0
:10006000F7010008F7010008F7010008F701000890
:10007000F7010008F7010008F7010008F701000880
:10008000F7010008F7010008F7010008F701000870
:10009000F7010008F7010008F7010008F701000860
:1000A000F7010008F7010008F7010008F701000850
:1000B000115300082153000831530008F7010008CC
:1000C000F7010008F7010008F7010008F701000830
:1000D000F7010008F7010008595E0008995E000862
:1000E000F7010008F7010008F7010008F701000810
:1000F000F7010008F7010008F7010008F701000800
:10010000F7010008F701000841530008F701000853
:100110003958000865590008515300080D5400086B
:10012000F7010008F7010008150B0008F7010008A7
:10013000DFF80CD000F094FC00480047816900080B
:10014000B0630020224B19680868B0E8F00F80F314
:100150000988BFF36F8F4FF0000080F311884EF0D5
:100160000D0E70470000000006480068006880F32C
:10017000088862B661B6BFF34F8FBFF36F8F00DFA1
:1001800000BF00BF08ED00E0EFF30980BFF36F8F01
:100190000F4B1A6820E9F00F106008B54FF05000BF
:1001A00080F31188BFF34F8FBFF36F8F08F058FDB6
:1001B0004FF0000080F31188BDE808401968086816
:1001C000B0E8F00F80F30988BFF36F8F704700BF6E
:1001D00010000020EFF305807047000006488047BC
:1001E00006480047FEE7FEE7FEE7FEE7FEE7FEE71C
:1001F000FEE7FEE7FEE7FEE70F53000831010008C7
:10020000202A04DB203A21FA02F00021704721FA6B
:1002100002F3D040C2F120029140084319467047D2
:1002200010B5431A934209D28318881803E010F8D6
:10023000011D03F8011D521EF9D210BD40EA010351
:100240009B0703D009E008C9121F08C0042AFAD28C
:1002500003E011F8013B00F8013B521EF9D210BD3A
:10026000D2B201E000F8012B491EFBD270470022F8
:10027000F6E710B513460A4604461946FFF7F0FFA5
:10028000204610BDF0B480EA0102D40F4200B2EB68
:10029000410F02D20246084611464A0042D0C30D21
:1002A000DDB2C1F3C752AD1A202D35DAC1F3160104
:1002B00041F4000204B15242C5F1200602FA06F1EF
:1002C0002A411044B3EBD05F23D0C4B1012DA0EB81
:1002D000C35009DCF0BC4FF0004202EAC352DBB26B
:1002E00000F5000000F019BB400000F1807000EB49
:1002F000C350A0F1807040EAD170490009E049087C
:1003000041EAC071A0EBC35000F50000400800EBCB
:10031000C350F0BC00F0F8BA6142012202EB410187
:10032000001BF6E7F0BC704781F00041AAE780F0BF
:100330000040A7E780EA010210B502F00043400048
:1003400022D04A001FD0010E01EB1261C0F356000B
:10035000C2F3560240F4000042F40002A0FB022067
:1003600000047F39140400D0401C50EA124001D42C
:100370004000491EC2B20C0604EBD010401C4008DD
:10038000802A02D003E0002010BD20F001000029E7
:1003900000DA0020184310BD30B480EA010202F0F8
:1003A000004530F0004221F0004013D090B1C30D61
:1003B000D40DC2F31601C0F31600E41A41F4000193
:1003C00040F400027D34914201D3641C00E04900F6
:1003D000002C02DA30BC002070474FF400000023EC
:1003E000914201D3891A034340084FEA4101F7D1F2
:1003F00051B1914202D14FF0004105E002D24FF0DD
:10040000010101E06FF0010103EBC450284430BC4E
:1004100000F07ABA2DE9FE4F804681EA0300C00F52
:100420000C46009021F0004123F00045B8EB02009B
:10043000A94105D24046214690461C460B4602463D
:1004400023F00040104347D0270DC7F30A00C3F341
:100450000A510290401A019040286BDAC3F313004E
:1004600040F4801B0098924620B10023D2EB030A8F
:1004700063EB0B0B01985946C0F14002504600F067
:1004800022FA06460D4650465946019A00F02AFACD
:1004900010EB08006141002487EA115284EAE773F7
:1004A0001A4340D0009A62B3019A012A4FEA0752D8
:1004B00015DC001B61EB02014FF0004202EA07521B
:1004C000CDE90042001C41F5801132462B4600F078
:1004D00061FA03B0BDE8F08F40462146F9E7001B02
:1004E00061EB0201001C41F5801300185B412018EC
:1004F000A2F5001747EB030140EAD570B6196D412C
:1005000011E06D084FEA360645EAC0754FEA07521A
:10051000001B61EB0201001C41F5801149084FEA04
:1005200030000019514132462B4603B0BDE8F04F70
:1005300000F021BA0098012240000023D0EB020213
:1005400063EBE073009821464FEAE074B8EB0000DB
:1005500061EB0401E9E783F000435BE781F00041D0
:1005600058E72DE9FE4F81EA030404F0004421F02E
:10057000004100944FF0000B23F0004350EA0104C7
:100580005ED052EA03045BD0C3F30A54C1F30A55A8
:100590002C44A4F2F3340194A0FB0254C1F31301E0
:1005A00041F48011C3F3130343F4801301FB0244AD
:1005B00000FB034E840A970A44EA815447EA8357B2
:1005C000A4FB076802958D0A05FB07854FEA932C6B
:1005D00004FB0C542705029D4FEA065847EA1637DC
:1005E000B5EB08056EEB070C870E920E47EA8117F4
:1005F00042EA8312A7FB0201B6EB0B0164EB000495
:100600002B0D43EA0C335E1844EB1C50DA4651467E
:10061000E7FB0201C5F313044FEA0B3343EA14531B
:100620004FEA0432019C43EA0603A4F10C0402944D
:10063000009CCDE900B400F0ADF903B0BDE8F08F47
:1006400000200146F9E72DE9F04D81EA030404F0AA
:10065000004B21F0004514464FF0000A23F0004102
:1006600050EA050220D054EA01021DD0C5F30A5712
:100670000246C5F31303C1F31300C1F30A5640F455
:10068000801543F48013A7EB0608101BD64608F22A
:10069000FD3873EB050002D308F1010801E0921860
:1006A0005B41B8F1000F03DA00200146BDE8F08D90
:1006B00000204FF48011064684460EE0171B73EBB2
:1006C000050705D3121B63EB050306434CEA010C37
:1006D00049084FEA300092185B4150EA0107EDD11A
:1006E00052EA030012D082EA040083EA05010843BB
:1006F00005D0101BAB4106D20122002306E00022E8
:100700004FF0004302E06FF0010253101AEB0600B5
:100710004CEB085110EB0A0041EB0B01BDE8F04D2A
:1007200000F029B996230022114600F0F6B80EB564
:10073000C10F80EAE0700844CA07002140F2334349
:100740008DE80E000A460B4600F024F903B000BD08
:1007500000F0004220F00040C10DC0F3160040F44C
:1007600000007F2901DA00207047962903DCC1F1DF
:100770009601C84001E096398840002AF4D04042F2
:10078000704700F0004230F000400AD0C10D01F582
:100790006071C0F3160042EA0151C20840071143DC
:1007A000704700200146704730B5041E71F1000407
:1007B00004DB4FF00044404264EB0101141E73F16E
:1007C000000405DB1C464FF00043524263EB040378
:1007D000994208BF904230BD01F0004330B421F08F
:1007E000004150EA010206D00A0DA2F56072C1F381
:1007F0001301002A02DC30BC00207047440F44EA99
:10080000C104C100E01830BC00EBC25000F07CB85D
:10081000002801DBC0F10040002901DBC1F10041EB
:1008200081427047002801DBC0F10040002901DB54
:10083000C1F100418842704730B50B4601460020A7
:100840002022012409E021FA02F59D4205D303FA92
:1008500002F5491B04FA02F52844151EA2F1010213
:10086000F1DC30BD2DE9F05F0546002092469B4645
:1008700088460646814640241BE0284641464746B6
:100880002246FFF7BDFC53465A46C01A914110D389
:1008900011461846224600F016F82D1A67EB01089B
:1008A0004F4622460120002100F00DF817EB000909
:1008B0004E41201EA4F10104DFDC484631462A46A1
:1008C0004346BDE8F09F202A04DB203A00FA02F1FB
:1008D000002070479140C2F1200320FA03F319432E
:1008E00090407047202A06DBCB17203A41FA02F0ED
:1008F00043EAE07306E041FA02F3D040C2F120027D
:1009000091400843194670470029A8BF7047401C12
:10091000490008BF20F00100704710B4B0FA80FC15
:1009200000FA0CF050EA010404BF10BC704749B152
:10093000CCF1200421FA04F411FA0CF118BF0121C2
:1009400021430843A3EB0C01CB1D4FEA00614FEAA2
:10095000102042BF002010BC704700EBC350104471
:100960000029A4BF10BC7047401C490008BF20F0FC
:10097000010010BC704710B5141E73F1000408DAB2
:10098000401C41F1000192185B411A4301D120F053
:10099000010010BD2DE9F04D92469B4611B1B1FA10
:1009A00081F202E0B0FA80F220329046FFF78BFF2E
:1009B00004460F4640EA0A0041EA0B0153465A46F4
:1009C000084313D0114653EA010019D0C8F1400280
:1009D0005046FFF715FC05460E465046594642461E
:1009E000FFF771FF084305D0012004E02046394697
:1009F000BDE8F08D0020054346EAE0762C433743FE
:100A00000A986305E40AA0EB08000022FD0A44EA04
:100A100047540A3002D500200146E9E701051019C4
:100A20006941DDE9084500196941BDE8F04DA2E7DB
:100A3000C1F30A52C1F3130140F2FF3341F48011B4
:100A40009A4202DA00200146704740F233439A424C
:100A5000A2F2334202DC5242FFF7D2BBFFF733BFB0
:100A6000064C074D06E0E06840F0010394E80700FB
:100A700098471034AC42F6D3FFF75EFB889200082B
:100A8000A892000870B58C1810F8015B15F00703E8
:100A900001D110F8013B2A1106D110F8012B03E017
:100AA00010F8016B01F8016B5B1EF9D12B0705D41F
:100AB0000023521E0DD401F8013BFAE710F8013B68
:100AC000CB1A921C03E013F8015B01F8015B521E84
:100AD000F9D5A142D8D3002070BD00BFFEE770B5A4
:100AE00005460E461446012C04D131462846FFF730
:100AF000C9FB70BD24B931462846FFF715FCF8E75D
:100B0000022C04D131462846FFF7BCFBF1E7002058
:100B1000EFE7000010B5024800F0F6FB10BD000042
:100B2000C406002030B590F840500124AC40C56B9D
:100B30006C60046863604468102C04D10468A2608F
:100B40000468E16003E00468A1600468E26030BD0D
:100B50007047000010B53D22FD49FE48FFF760FBDD
:100B6000FB4890F83D00FB4981F83D00F84890F8BB
:100B70003E0081F83E00F64890F83F10F54880F8B6
:100B80003F10F34890F84010F24880F84010F048C9
:100B900090F84110EF4880F84110ED4890F842007D
:100BA000EC4981F84200EA4890F84310E94880F89F
:100BB0004310E74890F84410E64880F84410E448B1
:100BC00090F84510E34880F84510E14890F8460059
:100BD000E04981F84600E04888648020C86400202D
:100BE0000865012048650846016D02F04DFE00BF12
:100BF000D848006D40B9D7480068006A20F00A0064
:100C0000D4490968086221E0D248006D042808D15F
:100C1000D0480068006A20F0A000CE490968086248
:100C200014E0CC48006D082808D1CA480068006A62
:100C300020F40070C7490968086207E0C5480068E9
:100C4000006A20F40050C34909680862C148006D79
:100C500030B9C0480068006ABE49096808621BE0F4
:100C6000BC48006D042806D1BA480068006AB9493A
:100C70000968086210E0B748006D082806D1B54839
:100C80000068006AB3490968086205E0B148006875
:100C9000006AB0490968086200BF3D22AF49B04808
:100CA000FFF7BEFAAD4890F83D00AD4981F83D0030
:100CB000AA4890F83E0081F83E00A84890F83F10FE
:100CC000A74880F83F10A54890F84010A44880F845
:100CD0004010A24890F84110A14880F841109F4868
:100CE00090F842009E4981F842009C4890F84310D9
:100CF0009B4880F84310994890F84410984880F831
:100D00004410964890F84510954880F8451093484F
:100D100090F84600924981F846009248886408207D
:100D2000C86400200865012048650846016D02F08E
:100D3000ABFD00BF8A48006D40B989480068006A71
:100D400020F00A0086490968086221E08448006DA5
:100D5000042808D182480068006A20F0A000804979
:100D60000968086214E07E48006D082808D17C48B4
:100D70000068006A20F4007079490968086207E099
:100D800077480068006A20F40050754909680862D5
:100D90007348006D30B972480068006A704909688C
:100DA00008621BE06E48006D042806D16C4800689C
:100DB000006A6B490968086210E06948006D0828FC
:100DC00006D167480068006A65490968086205E05D
:100DD00063480068006A62490968086200BF3D22F2
:100DE00061496248FFF71CFA5F4890F83D005F498F
:100DF00081F83D005C4890F83E0081F83E005A487A
:100E000090F83F10594880F83F10574890F840102C
:100E1000564880F84010544890F84110534880F8E4
:100E20004110514890F84200504981F842004E4824
:100E300090F843104D4880F843104B4890F8441008
:100E40004A4880F84410484890F84510474880F8D0
:100E50004510454890F84600444981F846003E4810
:100E600088640220C864002008650120486508469F
:100E7000016D02F009FD00BF3C48006D40B93B48E0
:100E80000068006A20F00A0038490968086221E019
:100E90003648006D042808D134480068006A20F004
:100EA000A00032490968086214E03048006D082843
:100EB00008D12E480068006A20F400702B490968A8
:100EC000086207E029480068006A20F400502749BA
:100ED000096808622548006D30B924480068006A36
:100EE0002249096808621BE02048006D042806D1E9
:100EF0001E480068006A1D490968086210E01B4826
:100F0000006D082806D119480068006A1749096869
:100F1000086205E015480068006A1449096808621B
:100F200000BF3D2212491348FFF77AF9104890F8A4
:100F30003D00104981F83D000D4890F83E0081F8D1
:100F40003E000B4890F83F100A4880F83F1013E02D
:100F5000D8040020CC5A0020000801409004002052
:100F6000245B0020000C0140680500207C5B002011
:100F700020050020D45B0020464890F840104648E9
:100F800080F84010434890F84110434880F84110E1
:100F9000404890F84200404981F842003D4890F8AE
:100FA00043103D4880F843103A4890F844103A48BE
:100FB00080F84410374890F84510374880F84510BD
:100FC000344890F84600344981F846003348886434
:100FD0008020C86400200865012048650846016D2E
:100FE00002F052FC00BF2C48006D40B92A4800684E
:100FF000006A20F00A0028490968086221E02648B2
:10100000006D042808D124480068006A20F0A00080
:1010100021490968086214E01F48006D082808D1BA
:101020001D480068006A20F400701B4909680862C6
:1010300007E019480068006A20F400501649096862
:1010400008621548006D30B913480068006A1249FB
:10105000096808621BE01048006D042806D10E489C
:101060000068006A0C490968086210E00A48006DCF
:10107000082806D108480068006A0749096808621C
:1010800005E005480068006A03490968086200BF76
:1010900010BD000020050020D45B0020000C0140A2
:1010A00072B600BFFEE7000070B5002500264FF4C1
:1010B000FA6007F0CDFC00240FE0142007F0C8FC14
:1010C0000F4801682846FFF7DDF805460C4881689F
:1010D0003046FFF7D7F80646641C0A2CEDDB0949B9
:1010E0002846FFF759F905460021284605F0CAFEB3
:1010F00004493046FFF750F90149086170BD00000E
:10110000A45A0020000020410146002291F821004D
:10111000022808D00420886300BF002081F8200046
:1011200000BF012070470868006820F00E000B68BF
:1011300018600868006820F001000B68186091F8DA
:10114000403001209840CB6B5860012081F821008D
:1011500000BF002081F8200000BF1046E2E7000039
:1011600070B50446002594F82100022803D004201D
:10117000A0630125C1E02068006820F00E0021680E
:1011800008602068006820F00100216808605C4960
:101190002068884252D95A4978392068884201D15A
:1011A000012047E0564964392068884201D1102067
:1011B00040E0534950392068884201D1801539E018
:1011C0004F493C392068884201D1801432E04C49B3
:1011D00028392068884202D14FF480302AE04849FB
:1011E00014392068884202D14FF4801022E044492B
:1011F0002068884201D140041CE0424920688842AE
:1012000001D1012016E03F4914312068884201D104
:1012100010200FE03B4928312068884201D1801519
:1012200008E038493C312068884201D1801401E04F
:101230004FF480303349091F086051E03049783954
:101240002068884201D1012047E02D496439206897
:10125000884201D1102040E0294950392068884255
:1012600001D1801539E026493C392068884201D1F6
:10127000801432E0224928392068884202D14FF494
:1012800080302AE01E4914392068884202D14FF488
:10129000801022E01A492068884201D140041CE0F5
:1012A00018492068884201D1012016E015491431FF
:1012B0002068884201D110200FE0124928312068AF
:1012C000884201D1801508E00E493C3120688842EF
:1012D00001D1801401E04FF4803009498039486021
:1012E000012084F8210000BF002084F8200000BF06
:1012F000606B10B12046616B8847284670BD0000C6
:10130000800002400804024070B50446E06B0568A6
:101310002068066894F8401004208840284000287F
:1013200075D006F004000028FAD02068006800F0AC
:10133000200028B92068006820F0040021680860B7
:10134000D5492068884254D9D349783920688842E1
:1013500001D1042049E0D04964392068884201D194
:10136000402042E0CC4950392068884201D1001524
:101370003BE0C9493C392068884202D14FF48040A3
:1013800033E0C54928392068884202D14FF48020D3
:101390002BE0C14914392068884202D14FF4800003
:1013A00023E0BD492068884201D1C0041DE0BB494B
:1013B0002068884201D1042017E0B8491431206820
:1013C000884201D1402010E0B44928312068884289
:1013D00001D1001509E0B1493C312068884202D1B1
:1013E0004FF4804001E04FF48020AC49091F0860B1
:1013F00054E0A94978392068884201D104204AE0A4
:10140000A54964392068884202D1402043E04CE07D
:10141000A14950392068884201D100153BE09E491E
:101420003C392068884202D14FF4804033E09A4929
:1014300028392068884202D14FF480202BE0964959
:1014400014392068884202D14FF4800023E0924989
:101450002068884201D1C0041DE09049206888427C
:1014600001D1042017E08D4914312068884201D150
:10147000402010E0894928312068884201D10015B8
:1014800009E086493C312068884202D14FF480400F
:1014900001E04FF48020804980394860E06A0028EC
:1014A00002D02046E16A8847F4E094F84010022018
:1014B00088402840002871D006F002000028FAD0A9
:1014C0002068006800F0200040B92068006820F023
:1014D0000A0021680860012084F821006E49206814
:1014E000884254D96C4978392068884201D1022059
:1014F00049E0694964392068884201D1202042E0EE
:10150000654950392068884201D140153BE0624965
:101510003C392068884202D14FF4005033E05E49E4
:1015200028392068884202D14FF400302BE05A4914
:1015300014392068884202D14FF4001023E0564944
:101540002068884201D180041DE054492068884207
:1015500001D1022017E0514914312068884201D19D
:10156000202010E04D4928312068884201D14015E3
:1015700009E04A493C312068884202D14FF40050CA
:1015800001E04FF400304549091F086054E042492A
:1015900078392068884202D102204AE057E03E496B
:1015A00064392068884201D1202042E03A4950390C
:1015B0002068884201D140153BE037493C3920681A
:1015C000884202D14FF4005033E033492839206873
:1015D000884202D14FF400302BE02F4914392068A3
:1015E000884202D14FF4001023E02B492068884242
:1015F00001D180041DE029492068884201D10220E0
:1016000017E0264914312068884201D1202010E0DB
:10161000224928312068884201D1401509E01F493C
:101620003C312068884202D14FF4005001E04FF471
:10163000003019498039486000BF002084F820003C
:1016400000BFA06A30B32046A16A884722E094F820
:101650004010082088402840E0B106F00800C8B1DA
:101660002068006820F00E002168086094F840109F
:1016700001208840E16B48600120A06384F82100CC
:1016800000BF002084F8200000BF206B10B120466E
:10169000216B884770BD00008000024008040240B2
:1016A0000146002209B9012070471E4B0868984284
:1016B0000BD21D4B0868C01A1423B0FBF3F0800056
:1016C000086419480838C8630AE0164B0868C01A4D
:1016D0001423B0FBF3F08000086412480838C86394
:1016E000022081F821000868026843F6F070824306
:1016F000D1E901031843CB6818430B6918434B69C0
:1017000018438B691843CB69184302430868026089
:1017100000208863012081F82100002081F820004A
:1017200000BFC1E708040240080002402DE9F04173
:1017300004460D4616461F464FF0000800BF94F8B9
:101740002000012802D10220BDE8F081012084F8A8
:10175000200000BF94F8210001282CD1022084F839
:1017600021000020A0632068006820F001002168AB
:1017700008603B46324629462046FFF7D3F9E06A27
:1017800030B12068006840F00E00216808600BE06E
:101790002068006820F00400216808602068006864
:1017A00040F00A00216808602068006840F00100ED
:1017B0002168086006E000BF002084F8200000BF18
:1017C0004FF002084046BFE770B5044600F0C8F984
:1017D00006462546681C10B104480078054400BF41
:1017E00000F0BEF9801BA842FAD370BD08000020AB
:1017F0002DE9F847024600239C467BE14FF00108A3
:1018000008FA03F4D1F8008008EA0400A0427DD170
:10181000DFF8F4A2D1F80480A8EB0A09D0453AD049
:1018200014DCB8F1030F50D009DCB8F1000F31D04F
:10183000B8F1010F1CD0B8F1020F49D120E0B8F186
:10184000110F18D0B8F1120F42D11EE0B9F5881F60
:1018500025D006DCB9F5803F20D0B9F5801F37D1FF
:101860001AE0B9F5001F18D0B9F5041F30D117E000
:10187000D1F80CC02DE0D1F80C8008F1040C28E060
:10188000D1F80C8008F1080C23E0D1F80C8008F1A5
:101890000C0C1EE000BF00BF00BF00BF00BF00BFB8
:1018A000D1F80880B8F1000F02D14FF0040C0BE022
:1018B000D1F80880B8F1010F03D14FF0080C146182
:1018C00002E04FF0080C546103E04FF0000C00E020
:1018D00000BF00BFFF2801D8904601E002F10408D4
:1018E0004646FF2802D84FEA830803E0A3F1080820
:1018F0004FEA88084746D6F800804FF00F0909FAEA
:1019000007F928EA09080CFA07F900E07AE048EA42
:101910000908C6F80080D1F8048008F08058B8F1B2
:10192000805F6FD100BFDFF8E481D8F8188048F0FD
:101930000108DFF8D891C9F81880C846D8F818808F
:1019400008F00108CDF8008000BF00BF4FEAB938A9
:101950004FEA930958F829504FEA83784FEA1879EB
:101960004FF00F0808FA09F825EA0805DFF8A0810A
:10197000424502D14FF0000824E0DFF8988142454B
:1019800002D14FF001081DE0DFF88C81424502D101
:101990004FF0020816E0DFF88481424502D14FF093
:1019A00003080FE0DFF87881424502D14FF00408C8
:1019B00008E0DFF87081424502D14FF0050801E0F0
:1019C0004FF006084FEA83794FEA197908FA09F8C7
:1019D00048EA0505DFF850814FEA930948F8295095
:1019E000D1F8048008F48038B8F5803F0BD1DFF8D7
:1019F0003C81D8F8008048EA0008DFF83091C9F847
:101A000000800AE075E0DFF82481D8F8008028EA39
:101A10000008DFF81891C9F80080D1F8048008F4B4
:101A20000038B8F5003F0ED1DFF8008108F1040856
:101A3000D8F8008048EA0008DFF8F09009F10409BE
:101A4000C9F800800DE0DFF8E48008F10408D8F858
:101A5000008028EA0008DFF8D49009F10409C9F8E9
:101A60000080D1F8048008F48018B8F5801F0ED1EA
:101A7000DFF8B88008F10808D8F8008048EA0008C4
:101A8000DFF8A89009F10809C9F800800DE0DFF837
:101A90009C8008F10808D8F8008028EA0008DFF8E0
:101AA0008C9009F10809C9F80080D1F8048008F485
:101AB0000018B8F5001F0ED1DFF8708008F10C088F
:101AC000D8F8008048EA0008DFF8609009F10C09B6
:101AD000C9F800800DE0DFF8548008F10C08D8F850
:101AE000008028EA0008DFF8449009F10C09C9F8E1
:101AF00000805B1CD1F8008028FA03F8B8F1000FD1
:101B00007FF47CAEBDE8F8870000111000100240A1
:101B100000080140000C0140001001400014014089
:101B200000180140001C0140080001400004014071
:101B3000024693680B400BB1012000E00020704783
:101B400010B5C26821EA020302EA010443EA044331
:101B5000036110BD0AB1016101E00B04036170472C
:101B6000014800687047000000000020034800683A
:101B700003490978084401490860704700000020C3
:101B80000800002010B50848006840F01000064921
:101B90000860032000F0CCF80F2000F007F800F0F8
:101BA00049F8002010BD00000020024070B588B048
:101BB00004460025002600222146372000F07AF84E
:101BC000372000F067F800BF1648C06940F02000D9
:101BD0001449C8610846C06900F02000019000BFA8
:101BE00000BF02A903A800F07DF900F0A3F94500A9
:101BF0000D48B5FBF0F0461E0C480D49086040F258
:101C0000E7310B48C160466000210161816000F04E
:101C1000B7FC20B9064800F013FE08B070BD0120E3
:101C2000FBE700000010024040420F00001400409B
:101C30004C07002008B500BF1448806940F001003F
:101C4000124988610846806900F00100009000BFD9
:101C500000BF00BF0846C06940F08050C861084618
:101C6000C06900F08050009000BF00BF00220F212B
:101C7000901E00F01FF800BF0549486820F0E060A2
:101C800040F00070486000BF08BD00000010024036
:101C90000000014001460846002809DB00F01F0350
:101CA00001229A4043099B0003F1E023C3F800217D
:101CB00000BF70472DE9F05F80460D4616460027AD
:101CC00004F076F9074639462A46334601F0070004
:101CD000C0F1070ABAF1040F02D94FF0040A01E07B
:101CE000C0F1070AD14600F1040ABAF1070F02D287
:101CF0004FF0000A01E0A0F1030AD4464FF0010AB8
:101D00000AFA09FAAAF1010A0AEA020A0AFA0CFA1C
:101D10004FF0010B0BFA0CFBABF1010B0BEA030BC1
:101D20004AEA0B042146404604F04AF9BDE8F09F18
:101D300000BF00F00702064B19684FF6FF03194079
:101D4000044B0B4343EA0221014B196000BF70476B
:101D50000CED00E00000FA0570B504460D460CB924
:101D6000012070BD5A48006800F00700A8420ED25A
:101D70005748006820F00700284355490860084686
:101D8000006800F00700A84201D00120E9E72078B0
:101D900000F0020002281DD1207800F00400042881
:101DA00005D14C48406840F4E0604A4948602078DA
:101DB00000F00800082805D14648406840F460500B
:101DC000444948604348406820F0F000A168084357
:101DD00040494860207800F0010078B3606801282D
:101DE00006D13C48006800F4003090B90120B8E703
:101DF0006068022806D13748006800F0007040B9DA
:101E00000120AEE73348006800F0020008B9012065
:101E1000A7E73048406820F00300616808432D4977
:101E20004860FFF79DFE064609E0FFF799FE801B1C
:101E300041F28831884202D9032092E707E0254821
:101E4000406800F00C006168B0EB810FEDD12048D4
:101E5000006800F00700A8420ED91D48006820F075
:101E6000070028431A4908600846006800F0070088
:101E7000A84201D0012074E7207800F00400042873
:101E800007D11448406820F4E060E1680843114934
:101E90004860207800F00800082808D10D48406804
:101EA00020F46050216940EAC1000A49486000F00E
:101EB00061F808494968C1F30311074A515CC840F9
:101EC0000649086006480068FFF770FE002048E7F2
:101ED0000020024000100240849100080C00002005
:101EE000040000200F2202600D4A526802F0030233
:101EF00042600B4A526802F0F0028260084A52685F
:101F000002F4E062C260064A526802F46052D208EB
:101F10000261044A126802F007020A60704700007A
:101F20000010024000200240014800687047000095
:101F30000C00002000B5FFF7F7FF04494968C1F322
:101F40000221034A515CC84000BD0000001002405D
:101F50009491000800B5FFF7E7FF04494968C1F311
:101F6000C221034A515CC84000BD0000001002407D
:101F700094910008F0B585B00FF26C0C9CE8E0106D
:101F800001A8A0E8E0101CA52D6800950021002202
:101F9000002300240020194D696801F00C05F5B1FB
:101FA000042D02D0082D19D101E0154819E001AD2A
:101FB000C1F38346AC5D01F4803555B10F4D6D68BA
:101FC000C5F340451DF805200D4D6543B5FBF2F303
:101FD00002E00C4D04FB05F3184602E000BF084880
:101FE00000BF00BF05B0F0BD0203040506070809E5
:101FF0000A0B0C0D0E0F1010010200000010024021
:1020000000127A0000093D00F8B504460CB9012021
:10201000F8BD207800F00100002878D0F84840682A
:1020200000F00C0004280CD0F548406800F00C00CB
:10203000082811D1F248406800F48030B0F5803FA4
:102040000AD1EF48006800F4003000285FD06068D3
:1020500000285CD10120DBE700BF6068B0F5803F5D
:1020600006D1E748006840F48030E549086028E080
:10207000606858B9E248006820F48030E0490860A0
:102080000846006820F4802008601AE06068B0F517
:10209000A02F0BD1DA48006840F48020D8490860AE
:1020A0000846006840F4803008600AE0D4480068C0
:1020B00020F48030D24908600846006820F480206F
:1020C000086000BF606888B1FFF74AFD054606E07A
:1020D000FFF746FD401B642801D9032098E7C84854
:1020E000006800F400300028F2D010E0FFF738FD5F
:1020F000054606E0FFF734FD401B642801D90320A4
:1021000086E7BF48006800F400300028F2D120784C
:1021100000F00200022857D1B948406800F00C00D6
:1021200050B1B748406800F00C00082818D1B448F6
:10213000406800F4803098B9B148006800F00200AF
:1021400020B12069012801D0012061E7AC48006876
:1021500020F0F800616940EAC100A949086033E055
:102160002069E8B10120A7490860FFF7F9FC05469E
:1021700006E0FFF7F5FC401B022801D9032047E7E2
:102180009F48006800F002000028F2D09C480068D8
:1021900020F0F800616940EAC1009949086013E045
:1021A000002098490860FFF7DBFC054606E0FFF7D2
:1021B000D7FC401B022801D9032029E7904800687A
:1021C00000F002000028F2D1207800F00800082872
:1021D0002DD1A069B8B101208B490860FFF7C0FC80
:1021E000054606E0FFF7BCFC401B022801D903208E
:1021F0000EE78348406A00F002000028F2D0012078
:1022000002F0BCFE13E000207F490860FFF7A8FC45
:10221000054606E0FFF7A4FC401B022801D9032075
:10222000F6E67748406A00F002000028F2D12078F4
:1022300000F00400042873D100277148C06900F041
:10224000805070B900BF6E48C06940F080506C4942
:10225000C8610846C06900F08050009000BF00BF10
:1022600001276A48006800F48070B0B967480068C8
:1022700040F4807065490860FFF772FC054606E08F
:10228000FFF76EFC401B642801D90320C0E65F48BD
:10229000006800F480700028F2D000BFE0680128D8
:1022A00006D15748006A40F001005549086227E00E
:1022B000E06858B95248006A20F0010050490862AD
:1022C0000846006A20F00400086219E0E06805286A
:1022D0000BD14B48006A40F00400494908620846A7
:1022E000006A40F0010008620AE04548006A20F0F8
:1022F0000100434908620846006A20F004000862B1
:1023000000BFE068A0B1FFF72BFC054609E0FFF72E
:1023100027FC401B41F28831884202D9032077E62E
:1023200022E03748006A00F002000028EFD012E0F7
:10233000FFF716FC054608E0FFF712FC401B41F2D0
:102340008831884201D9032062E62D48006A00F0F6
:1023500002000028F0D1012F05D12948C06920F0E2
:1023600080502749C86100BFE069C8B3244840686D
:1023700000F00C00082860D0E069022848D1002055
:1023800020490866FFF7ECFB054606E0FFF7E8FB8F
:10239000401B022801D903203AE61948006800F0E2
:1023A00000700028F2D1206AB0F5803F07D11448B0
:1023B000406820F40030A168084311494860D4E91E
:1023C000080108430E49496821F4741108430C4977
:1023D000486001200B490866FFF7C2FB054607E08D
:1023E0003DE0FFF7BDFB401B022801D903200FE6AB
:1023F0000348006800F000700028F2D02FE00000D1
:10240000001002400000424280044242007000403E
:10241000002014490866FFF7A3FB054606E0FFF716
:102420009FFB401B022801D90320F1E50E480068FC
:1024300000F000700028F2D111E0E069012800D11D
:10244000E6E50948466806F48031206A814204D1F5
:1024500006F47011606A814201D00120D8E50020A5
:10246000D6E500000000424200100240704770476D
:1024700010B50346002200BF93F83C00012801D1AB
:10248000022010BD012083F83C0000BF22F0FF00B5
:10249000CC6840EA040222F440708C6840EA0402EE
:1024A00022F480604C6840EA040222F400600C6868
:1024B00040EA040222F480500C6940EA040222F44B
:1024C00000504C6940EA040222F48040CC6940EAA2
:1024D00004021868426400BF002083F83C0000BF7B
:1024E00000BFCEE730B502460B4600BF92F83C0075
:1024F000012801D1022030BD012082F83C0000BF3C
:10250000022082F83D00106844681068816824F059
:1025100070041868044310684460144D1068A842A1
:1025200013D0134D1068A8420FD01068B0F1804F3F
:102530000BD0104D1068A84207D00F4D1068A8426C
:1025400003D00E4D1068A84205D121F080015868D3
:10255000014310688160012082F83D0000BF002027
:1025600082F83C0000BF00BFC5E70000002C01401E
:10257000003401400004004000080040000C00400E
:1025800010B504460CB9012010BD94F83D0028B9DF
:10259000002084F83C00204600F026F8022084F851
:1025A0003D00211D206802F039FF012084F846001B
:1025B00000BF84F83E0001213F2001554020015515
:1025C0004120015500BF00BF012084F84200432094
:1025D0000155442001554520015500BF012084F8D4
:1025E0003D000020D0E7000010B586B00446002072
:1025F00002900390049005908849206888420DD18C
:1026000000BF8748806940F40060854988610846BA
:10261000806900F40060019000BFFCE02068B0F128
:10262000804F50D100BF7E48C06940F001007C4916
:10263000C8610846C06900F00100019000BF00BFFA
:1026400000BF0846806940F0040088610846806940
:1026500000F00400019000BF00BF00BF0846806981
:1026600040F0080088610846806900F00800019089
:1026700000BF00BF4FF400400290002003900220F2
:10268000049002A96748FFF7B3F8082002900020E1
:1026900003900220049002A96348FFF7A9F800BF45
:1026A0006249486820F4407040F0E06040F4807077
:1026B000486000BF002205211C20FFF7FBFA1C2008
:1026C000FFF7E8FAA7E05A49206888422DD100BFF9
:1026D0005348C06940F002005149C8610846C069CA
:1026E00000F00200019000BF00BF00BF08468069F3
:1026F00040F0040088610846806900F00400019001
:1027000000BF00BFC0200290002003900220049070
:1027100002A94448FFF76CF8002205211D20FFF7AD
:10272000C9FA1D20FFF7B6FA75E0424920688842D1
:102730002DD100BF3A48C06940F004003849C86153
:102740000846C06900F00400019000BF00BF00BF50
:102750000846806940F0080088610846806900F0FA
:102760000800019000BF00BFC0200290002003902D
:102770000220049002A92C48FFF73AF80022052114
:102780001E20FFF797FA1E20FFF784FA43E02A493C
:10279000206888422DD100BF2148C06940F0080060
:1027A0001F49C8610846C06900F00800019000BFD9
:1027B00000BF00BF0846806940F0040088610846F9
:1027C000806900F00400019000BF00BF0320029068
:1027D000002003900220049002A91248FFF708F895
:1027E000002205213220FFF765FA3220FFF752FA66
:1027F00011E01249206888420DD100BF0848806965
:1028000040F40050064988610846806900F4005091
:10281000019000BF00BF06B010BD0000002C0140B9
:102820000010024000080140000C0140000001407F
:102830000004004000080040000C0040003401404B
:10284000014691F83D00012801D001207047022087
:1028500081F83D000868C06840F001000B68D8604E
:10286000164B0868984213D0154B086898420FD051
:102870000868B0F1804F0BD0124B0868984207D01F
:10288000114B0868984203D0104B086898420CD14D
:102890000868806800F00702062A0CD00868006803
:1028A00040F001000B68186005E00868006840F01F
:1028B00001000B6818600020C8E70000002C0140F0
:1028C000003401400004004000080040000C0040BB
:1028D0002DE9F04104460D4600BF94F83C00012864
:1028E00002D10220BDE8F081012084F83C0000BF45
:1028F000022084F83D002068866826F0770626F4DA
:102900007F46206886602868502833D00CDC202859
:1029100050D004DC00284BD0102851D149E0302899
:1029200049D040284CD139E060282DD0702807D0FC
:10293000B0F5805F03D0B0F5005F41D10DE040E01D
:10294000D5E902136A68206802F0C7FD206886682E
:1029500046F077062068866033E0D5E902136A689E
:10296000206802F0BAFD2068806840F48040216849
:10297000886026E0EA686968206802F09FFE5021BE
:10298000206802F0B5FD1CE0EA686968206802F082
:10299000E7FE6021206802F0ABFD12E0EA6869689A
:1029A000206802F08BFE4021206802F0A1FD08E0C3
:1029B00000BF00BF00BF2968206802F099FD00E059
:1029C00000BF00BF012084F83D0000BF002084F854
:1029D0003C0000BF00BF85E710B50446207FF849E2
:1029E000496D88427DD1F648006821688842F9D156
:1029F0000020F4490870F448007810B1012871D122
:102A00007FE0EF48016D01F0B5FAF049086000BFC2
:102A1000EB48006D40B9EA480068006A20F00A00FF
:102A2000E7490968086221E0E548006D042808D1FB
:102A3000E3480068006A20F0A000E14909680862E4
:102A400014E0DF48006D082808D1DD480068006AFE
:102A500020F40070DA490968086207E0D848006885
:102A6000006A20F40050D64909680862D448006D15
:102A700040B9D3480068006A40F00200D0490968B4
:102A8000086221E0CE48006D042808D1CC480068D7
:102A9000006A40F02000CA490968086214E0C8488A
:102AA000006D082808D1C6480068006A40F400702C
:102AB000C3490968086207E0C1480068006A40F439
:102AC0000050BF490968086200BFBF480078401C39
:102AD000BD490870BA4AB2F84C2091B2B84A906C1D
:102AE00001E00CE10AE1FFF723F8B949087020B9C9
:102AF0004FF0FF30B749086002E00120B549086097
:102B0000FCE0AF48016D01F035FAB3490860AC480C
:102B1000016D00F071FFAA4AB2F84C2091B2A84AA8
:102B2000906CFFF705F8AD490870A948007809785E
:102B3000884277D0A8480068A449096888420BD227
:102B4000A24800684FF6FF71081AA34909680844B3
:102B5000401CA349086006E09F4800689B4909683B
:102B6000401A9F4908609F48007830BB9C48006825
:102B70009D4909789D4A42F821009B480078401CF5
:102B80009949087008460078082836D1002009E0E5
:102B900093490968954A52F820201144904A1160DF
:102BA000411CC8B20828F3DB8D480068C008904972
:102BB000086001208B4908701FE000208C490860E4
:102BC0001C228A49091D081FFDF72AFB844800685A
:102BD0008649C861002009E081490968834A52F8A2
:102BE000202011447E4A1160411CC8B20828F3DB42
:102BF0007B480068C0087E4908607E4800687549C7
:102C0000096808447B4908600846006847F230516B
:102C1000884208DB78480068401C7749086000203B
:102C2000744908600CE0734800687449884207DC06
:102C300071480068401E7049086000206D490860B6
:102C40000020614908705E48016D00F01DFE00BF64
:102C50005B48006D40B95A480068006A20F00A00DD
:102C600057490968086221E05548006D042808D1D9
:102C700053480068006A20F0A000514909680862C2
:102C800014E04F48006D082808D14D480068006ADC
:102C900020F400704A490968086207E04848006863
:102CA000006A20F400504649096808624448006DF3
:102CB00030B943480068006A4149096808621BE06E
:102CC0003F48006D042806D13D480068006A3C4931
:102CD0000968086210E03A48006D082806D13848B3
:102CE0000068006A36490968086205E034480068EF
:102CF000006A33490968086200BF00BF00BF207F37
:102D00003F49496D88427DD13D480068216888422D
:102D1000F9D100202B4948702B48407810B1012888
:102D200071D1A0E03648016D01F024F927494860CF
:102D300000BF3348006D40B931480068006A20F098
:102D40000A002F490968086221E02D48006D042817
:102D500008D12B480068006A20F0A00028490968C3
:102D6000086214E02648006D082808D1244800684D
:102D7000006A20F4007022490968086207E02048D0
:102D80000068006A20F400501D49096808621C4868
:102D9000006D40B91A480068006A40F00200184906
:102DA0000968086245E01648006D04282CD11448D3
:102DB0000068006A40F0200011490968086238E0A4
:102DC000CC5A0020EC010020D80100202C5C00200F
:102DD000DC0100206C5C00203C5C0020E001002055
:102DE0005C5C0020E4010020E80100209C5C0020E5
:102DF0004C5C00207C5C00208C5C0020D08AFFFFB3
:102E0000245B00202EE12CE1FE48006D082808D14B
:102E1000FC480068006A40F40070FA4909680862DA
:102E200007E0F8480068006A40F40050F549096876
:102E3000086200BFF4484078401CF3494870F14AEA
:102E4000B2F84C2091B2EF4A906CFEF771FEEF4958
:102E5000487020B94FF0FF30ED49486002E0012092
:102E6000EB494860FDE0E748016D01F083F8E9496E
:102E70004860E448016D00F0BFFDE24AB2F84C2022
:102E800091B2E04A906CFEF753FEE3494870DF4888
:102E900040784978884278D0DE484068DF49496800
:102EA00088420BD2DD4840684FF6FF71081AD949B5
:102EB00049680844401CDA49486006E0D548406843
:102EC000D6494968401AD6494860D648407830BB50
:102ED000D3484168D4484278D44840F82210D248B8
:102EE0004078401CD049487008464078082837D1BF
:102EF000002009E0CA494A68CC4951F82010114421
:102F0000C74A5160411CC8B20828F3DBC448406876
:102F1000C008C74948600120C249487020E000202D
:102F2000C34948601C22C149091D081FFDF778F9F3
:102F3000BB484168BD482038C163002009E0B8495A
:102F40004A68BA4951F820101144B54A5160411CF1
:102F5000C8B20828F3DBB2484068C008B4494860EA
:102F6000B4484068AA4949680844B24948600846DC
:102F7000406847F23051884208DBAF484068401C47
:102F8000AD4948600020AB4948600CE0A948406862
:102F9000AA49884207DCA8484068401EA649486004
:102FA0000020A44948600020974948709548016D69
:102FB00000F06AFC00BF9348006D40B9914800687A
:102FC000006A20F00A008F490968086221E08D48F4
:102FD000006D042808D18B480068006A20F0A0002A
:102FE00088490968086214E08648006D082808D1FD
:102FF00084480068006A20F4007082490968086209
:1030000007E080480068006A20F400507D490968A4
:1030100008627C48006D30B97A480068006A7949D6
:10302000096808621BE07748006D042806D17548DE
:103030000068006A73490968086210E07148006D11
:10304000082806D16F480068006A6E49096808625E
:1030500005E06C480068006A6A490968086200BFB8
:1030600000BF00BF207F7649496D88427DD17448FA
:10307000006821688842F9D100207249887062484E
:10308000807810B1012871D17FE06D48016D00F0AA
:1030900071FF6249886000BF6948006D40B96848A7
:1030A0000068006A20F00A0065490968086221E0AA
:1030B0006348006D042808D161480068006A20F068
:1030C000A0005F490968086214E05D48006D0828A7
:1030D00008D15B480068006A20F40070584909680C
:1030E000086207E056480068006A20F4005054491E
:1030F000096808625248006D40B951480068006A8A
:1031000040F002004E490968086221E04C48006D19
:10311000042808D14A480068006A40F02000484965
:103120000968086214E04648006D082808D1444840
:103130000068006A40F4007041490968086207E0CD
:103140003F480068006A40F400503D490968086241
:1031500000BF2D488078401C2B498870384AB2F84F
:103160004C2091B2364A906C01E033E131E1FEF738
:10317000DFFC2649887020B94FF0FF302449886071
:1031800002E001202249886023E12D48016D00F012
:10319000F1FE204988602A48016D00F02DFC284A84
:1031A000B2F84C2091B2264A906CFEF7C1FC1A4945
:1031B0008870164880788978884277D0154880686A
:1031C0001649896888420BD2144880684FF6FF710F
:1031D000081A104989680844401C1149886006E0B3
:1031E0000C4880680D498968401A0D4988600D486F
:1031F000807830B90A4881680B4882780B482030C3
:1032000022E043E0245B0020D8010020DC01002004
:103210006C5C00203C5C0020E00100202C5C002065
:103220005C5C0020E4010020E8010020BC5C002080
:103230004C5C00207C5C00208C5C0020D08AFFFF6E
:103240007C5B0020EC01002040F82210FE488078D2
:10325000401CFD49887008468078082838D1002035
:1032600009E0FA498A68FA4951F820101144F74AEE
:103270009160411CC8B20828F3DBF4488068C0089C
:10328000F44988600120F449887021E00020F14968
:1032900088601C22EE49091D081FFCF7C1FFEB489E
:1032A0008168EB484038C16500200AE033E0E74917
:1032B0008A68E74951F820101144E44A9160411CA2
:1032C000C8B20828F3DBE1488068C008E14988609B
:1032D000E2488068E24989680844E0498860084615
:1032E000806847F23051884208DBDE488068401C25
:1032F000DC4988600020D94988600CE0D7488068A4
:10330000D949884207DCD7488068401ED549886083
:103310000020D24988600020D4498870D448016DCB
:1033200000F0B2FA00BFD248006D40B9D048006842
:10333000006A20F00A00CE490968086221E0CC4802
:10334000006D042808D1CA480068006A20F0A00077
:10335000C7490968086214E0C548006D082808D10B
:10336000C3480068006A20F40070C1490968086217
:1033700007E0BF480068006A20F40050BC490968B3
:103380000862BB48006D30B9B9480068006AB849A6
:10339000096808621BE0B648006D042806D1B448ED
:1033A0000068006AB2490968086210E0B048006D20
:1033B000082806D1AE480068006AAD49096808626D
:1033C00005E0AB480068006AA9490968086200BFC7
:1033D00000BF00BF207FA749496D88427DD1A54825
:1033E000006821688842F9D10020A349C8709F482D
:1033F000C07810B1012871D17FE09E48016D00F0C6
:10340000B9FD9E49C86000BF9A48006D40B999480F
:103410000068006A20F00A0096490968086221E005
:103420009448006D042808D192480068006A20F092
:10343000A00090490968086214E08E48006D0828D1
:1034400008D18C480068006A20F400708949096836
:10345000086207E087480068006A20F40050854948
:10346000096808628348006D40B982480068006AB4
:1034700040F002007F490968086221E07D48006D44
:10348000042808D17B480068006A40F02000794990
:103490000968086214E07748006D082808D175486B
:1034A0000068006A40F4007072490968086207E029
:1034B00070480068006A40F400506E49096808626C
:1034C00000BF6A48C078401C6849C870694AB2F8B1
:1034D0004C2091B2674A906C01E033E131E1FEF794
:1034E00027FB6749C87020B94FF0FF305C49C860BE
:1034F00002E001205A49C86023E15E48016D00F0F6
:1035000039FD6049C8605B48016D00F075FA594AA1
:10351000B2F84C2091B2574A906CFEF709FB5A4919
:10352000C8705748C078C97888427BD05548C06871
:103530005249C96888420BD25048C0684FF6FF71A3
:10354000081A5049C9680844401C4049C86006E050
:103550004C48C0684949C968401A3C49C8603E485F
:10356000C07840BB3948C1683748C27838482030F5
:1035700040F822103448C078401C3349C8700846CF
:10358000C078082839D100200AE03049CA6830499B
:10359000203151F8201011442C4AD160411CC8B28E
:1035A0000828F2DB2948C068C0082A49C860012001
:1035B0002949C87021E000202649C8601C222449FE
:1035C0002431081FFCF72CFE2048C16820484038F1
:1035D000C16700200AE01D49CA681D49203151F821
:1035E00020101144194AD160411CC8B20828F2DBEE
:1035F0001648C068C0081749C8601848C06818490C
:10360000C96808441549C8600846C06847F2305187
:10361000884208DB1348C068401C1249C86000207B
:103620000E49C8600CE00D48C0680F49884207DCAD
:103630000C48C068401E0B49C86000200749C8609C
:1036400000200A49C87021E0E80100205C5C0020ED
:10365000DC5C00204C5C0020E40100207C5C00204D
:103660006C5C00208C5C0020D08AFFFFD801002019
:103670007C5B0020D45B0020EC0100202C5C00204F
:10368000DC0100203C5C0020E00100202E48016DA0
:1036900000F0FAF800BF2C48006D40B92A480068D5
:1036A000006A20F00A0028490968086221E02648DB
:1036B000006D042808D124480068006A20F0A000AA
:1036C00021490968086214E01F48006D082808D1E4
:1036D0001D480068006A20F400701B4909680862F0
:1036E00007E019480068006A20F40050164909688C
:1036F00008621548006D30B913480068006A124925
:10370000096808621BE01048006D042806D10E48C5
:103710000068006A0C490968086210E00A48006DF8
:10372000082806D108480068006A07490968086245
:1037300005E005480068006A03490968086200BF9F
:1037400000BF00BF10BD0000D45B00202DE9F04198
:1037500004460D46164600BF94F83C00012802D1ED
:103760000220BDE8F081012084F83C0000BF96B93A
:10377000EB68D5E90012206801F0B4FF2068806989
:1037800020F00C002168886120688069A9680843DE
:10379000216888613DE0042E13D1EB68D5E9001261
:1037A000206801F0F1FF2068806920F44060216802
:1037B000886120688069A96840EA012021688861E1
:1037C00027E0082E12D1EB68D5E90012206801F03D
:1037D000F8FF2068C06920F00C002168C8612068EB
:1037E000C069A96808432168C86112E0EB68D5E99F
:1037F0000012206802F001F82068C06920F44060DF
:103800002168C8612068C069A96840EA0120216870
:10381000C86100BF002084F83C0000BF00BFA0E7E3
:1038200010B504460CB9012010BD94F83D0028B92C
:10383000002084F83C00204600F025F8022084F89F
:103840003D00211D206801F0E9FD012084F84600BB
:1038500000BF84F83E0001213F2001554020015562
:103860004120015500BF00BF012084F842004320E1
:103870000155442001554520015500BF012084F821
:103880003D000020D0E770472DE9F04104460D4689
:1038900015B994F83E000BE0042D02D13F20005DE5
:1038A00006E0082D02D14020005D01E04120005DCE
:1038B000074615B994F842000BE0042D02D14320CD
:1038C000005D06E0082D02D14420005D01E04520A6
:1038D000005D8046012F02D1B8F1010F02D0012016
:1038E000BDE8F0811DB9022084F83E000EE0042DF1
:1038F00003D102213F20015508E0082D03D1022108
:103900004020015502E00221412001551DB902204D
:1039100084F842000EE0042D03D10221432001551A
:1039200008E0082D03D102214420015502E00221C4
:103930004520015535B1042D0BD0082D10D00C2D8C
:103940001CD114E02068C06840F002002168C86003
:1039500015E02068C06840F004002168C8600EE0EF
:103960002068C06840F008002168C86007E020684F
:10397000C06840F010002168C86000E000BF00BFD0
:1039800001222946206801F097FD164920688842E7
:1039900013D01549206888420FD02068B0F1804FBD
:1039A0000BD012492068884207D01149206888420C
:1039B00003D01049206888420CD12068806800F04C
:1039C0000706062E0CD02068006840F00100216830
:1039D000086005E02068006840F001002168086088
:1039E00000207DE7002C014000340140000400402D
:1039F00000080040000C004030B504460D4635B1CB
:103A0000042D0BD0082D10D00C2D1CD114E02068F3
:103A1000C06820F002002168C86015E02068C06816
:103A200020F004002168C8600EE02068C06820F023
:103A300008002168C86007E02068C06820F0100016
:103A40002168C86000E000BF00BF0022294620684E
:103A500001F032FD00BF2068006A41F211110840F8
:103A600050B92068006A8910084028B920680068A9
:103A700020F001002168086000BF1DB9012084F812
:103A80003E000EE0042D03D101213F20015508E046
:103A9000082D03D101214020015502E001214120E0
:103AA00001551DB9012084F842000EE0042D03D118
:103AB00001214320015508E0082D03D101214420B4
:103AC000015502E0012145200155002030BD10B50F
:103AD000044620680069C0F34000D8B12068C0687F
:103AE000C0F34000B0B16FF002002168086101200E
:103AF00020772068806900F0030018B12046FEF7A7
:103B00006BFF05E0204600F0FBF8204600F0ABF923
:103B10000020207720680069C0F38000D8B12068B9
:103B2000C068C0F38000B0B16FF004002168086184
:103B3000022020772068806900F4407018B1204688
:103B4000FEF74AFF05E0204600F0DAF8204600F0D4
:103B50008AF90020207720680069C0F3C000D8B13E
:103B60002068C068C0F3C000B0B16FF008002168E1
:103B70000861042020772068C06900F0030018B1B4
:103B80002046FEF729FF05E0204600F0B9F8204660
:103B900000F069F90020207720680069C0F3001068
:103BA000D8B12068C068C0F30010B0B16FF0100049
:103BB00021680861082020772068C06900F44070FF
:103BC00018B12046FEF708FF05E0204600F098F8FF
:103BD000204600F048F9002020772068006900F0B6
:103BE000010058B12068C06800F0010030B16FF0EA
:103BF000010021680861204600F0B0F920680069E2
:103C0000C0F3C01058B12068C068C0F3C01030B114
:103C10006FF08000216808612046FEF727FC2068CD
:103C20000069C0F3801058B12068C068C0F38010EC
:103C300030B16FF0400021680861204600F0B3F910
:103C400020680069C0F3401058B12068C068C0F314
:103C5000401030B16FF02000216808612046FEF767
:103C600006FC10BD10B586B00446002002900390FB
:103C7000049005901D492068884218D100BF1C4857
:103C8000806940F004001A4988610846806900F0A4
:103C90000400019000BF00BF4FF47060029002204A
:103CA0000390059002A91348FDF7A2FD1BE01249FD
:103CB0002068884217D100BF0D48806940F010008D
:103CC0000B4988610846806900F01000019000BF30
:103CD00000BF4FF47070029002200390059002A97B
:103CE0000648FDF785FD06B010BD0000002C014020
:103CF0000010024000080140003401400010014063
:103D0000704770B504460D46164600BF94F83C0057
:103D1000012801D1022070BD012084F83C0000BFC1
:103D200036B1042E1BD0082E31D00C2E5ED145E0CA
:103D30002946206801F0E6FB2068806940F0080011
:103D4000216888612068806920F00400216888610A
:103D500020688069296908432168886147E029460D
:103D6000206801F007FC2068806940F40060216849
:103D700088612068806920F48060216888612068FB
:103D80008069296940EA0120216888612FE029467D
:103D9000206801F02DFC2068C06940F0080021680F
:103DA000C8612068C06920F004002168C8612068EB
:103DB000C069296908432168C86118E0294620685C
:103DC00001F052FC2068C06940F400602168C861BD
:103DD0002068C06920F480602168C8612068C069DB
:103DE000296940EA01202168C86100E000BF00BFE6
:103DF00000BF002084F83C0000BF00BF8BE710B577
:103E000004460CB9012010BD94F83D0028B90020EB
:103E100084F83C00204600F025F8022084F83D009C
:103E2000211D206801F0FAFA012084F8460000BF45
:103E300084F83E0001213F200155402001554120DA
:103E4000015500BF00BF012084F842004320015506
:103E5000442001554520015500BF012084F83D0054
:103E60000020D0E77047704770B504460D4615B97D
:103E700094F83E000BE0042D02D13F20005D06E0E7
:103E8000082D02D14020005D01E04120005D0128A5
:103E900001D0012070BD1DB9022084F83E000EE063
:103EA000042D03D102213F20015508E0082D03D144
:103EB00002214020015502E002214120015501224A
:103EC0002946206801F0F8FA1F492068884203D08B
:103ED0001E492068884201D1012000E0002028B15D
:103EE0002068406C40F4004021684864164920680E
:103EF000884213D01549206888420FD02068B0F15D
:103F0000804F0BD012492068884207D011492068A1
:103F1000884203D01049206888420CD1206880680C
:103F200000F00706062E0CD02068006840F0010063
:103F30002168086005E02068006840F00100216801
:103F400008600020A6E70000002C0140003401407A
:103F50000004004000080040000C004010B504467A
:103F600003492068884201D1FDF700FE10BD000022
:103F7000001400400246002031B1042907D008296E
:103F800008D00C290CD108E01368586B09E01368BD
:103F9000986B06E01368D86B03E01368186C00E0B8
:103FA00000BF00BF70477047704770B504460025DA
:103FB00020684069C0F3C01594F83D0021280ED157
:103FC0006DB12068406920F0800021684861606B15
:103FD00010B1606BFDF798F8204601F06CFD206889
:103FE0004069C0F3801594F83E0022280ED16DB1CF
:103FF0002068406920F0400021684861A06B10B142
:10400000A06BFDF781F8204601F02AFD002070BD6D
:10401000704701460022002391F83D2091F83E3080
:1040200042EA0300704700002DE9F84F044620687B
:1040300005682068C668206847694FF00009CA46CD
:1040400005F00F09B9F1000F0AD105F0200038B1D1
:1040500006F0200020B1204601F037FDBDE8F88FC2
:10406000B9F1000F71D007F0010018B906F4907093
:1040700000286AD005F0010030B106F4807018B154
:10408000206C40F00100206405F0040030B107F01E
:10409000010018B1206C40F00200206405F002001D
:1040A00030B107F0010018B1206C40F0040020642A
:1040B00005F0080048B106F0200010B907F0010033
:1040C00018B1206C40F008002064206C68B305F043
:1040D000200028B106F0200010B1204601F0F5FCC8
:1040E00020684069C0F3801A206C00F0080010B905
:1040F000BAF1000F22D0204601F0B2FC20684069DE
:1041000000F04000B0B12068406920F04000216814
:104110004861A06B50B15648A16B4863A06BFDF796
:104120001FF810B1A06B416B88470CE02046FFF7E9
:104130006FFF08E02046FFF76BFF04E02046FFF723
:1041400067FF0020206489E7FFE7206B012878D112
:1041500005F01000002874D006F01000002870D080
:1041600000BF002000902068006800902068406830
:10417000009000BF00BF2068406900F04000C0B35D
:10418000A06B006840681FFA80F8B8F1000F2FD0CC
:10419000A08D40452CDDA4F82E80A06B80692028DE
:1041A0001FD02068C06820F480702168C860206833
:1041B000406920F00100216848612068406920F0D2
:1041C000400021684861202084F83E0000202063E0
:1041D0002068C06820F010002168C860A06BFCF760
:1041E00093FFA08DE28D801A81B22046FFF7DCFE9E
:1041F00034E7FFE7A08DE18D401A1FFA80F8E08DCB
:10420000E8B1B8F1000F1AD02068C06820F49070AF
:104210002168C8602068406920F001002168486179
:10422000202084F83E00002020632068C06820F031
:1042300010002168C86041462046FFF7B5FE0DE733
:10424000FFE705F0800030B106F0800018B120468D
:1042500001F09BFD02E705F0400030B106F04000A0
:1042600018B1204601F017FCF8E600BFF6E60000A2
:104270007559000810B504460CB9012010BDA0699D
:1042800000B100E000BF94F83D0028B9002084F898
:104290003C00204600F028F8242084F83D002068E7
:1042A000C06820F400502168C860204601F080FCFE
:1042B0002068006920F49040216808612068406906
:1042C00020F02A00216848612068C06840F400504E
:1042D0002168C86000202064202084F83D0084F814
:1042E0003E000020CAE7000010B586B0044600205A
:1042F00002900390049005909D492068884250D117
:1043000000BF9C48C06940F400209A49C861084633
:10431000C06900F40020019000BF00BF00BF084644
:10432000806940F0100088610846806900F0100044
:10433000019000BF00BF08150290022003900320E7
:10434000059002A98C48FDF753FA4FF400600290E3
:1043500000200390049002A98748FDF749FA874896
:1043600087490860002048600021854881608021DD
:10437000C1600021016141618161C161FDF790F976
:1043800008B1FCF78DFE00BF7D48A063446200BF0A
:10439000002205213420FDF78DFC3420FDF77AFC46
:1043A000E4E078492068884250D100BF7148C06974
:1043B00040F480206F49C8610846C06900F480203D
:1043C000019000BF00BF00BF0846806940F00800B0
:1043D00088610846806900F00800019000BF00BFB6
:1043E00008150290022003900320059002A9664858
:1043F000FDF7FEF94FF40060029000200390049056
:1044000002A96148FDF7F4F960486149086000209D
:10441000486000215E4881608021C1600021016107
:1044200041618161C161FDF73BF908B1FCF738FEDC
:1044300000BF5748A063446200BF00220521272027
:10444000FDF738FC2720FDF725FC8FE05149206857
:10445000884243D100BF4748C06940F480104549B5
:10446000C8610846C06900F48010019000BF00BF19
:1044700000BF0846806940F01000886108468069E6
:1044800000F01000019000BF00BF00BF0846806927
:1044900040F0200088610846806900F0200001900B
:1044A00000BF00BF881402900220039003200590F3
:1044B00002A93148FDF79CF90420029000200390E6
:1044C000049002A93448FDF793F900220521352014
:1044D000FDF7F0FB3520FDF7DDFB47E02F492068B5
:1044E000884243D100BF2348806940F0040021493D
:1044F00088610846806900F00400019000BF00BF99
:1045000000BF0846C06940F40030C8610846C06971
:1045100000F40030019000BF00BF00BF0846806972
:1045200040F0010088610846806900F001000190B8
:1045300000BF00BF042002900220039001200490DD
:104540000320059002A91648FDF752F908200290B1
:104550000020039002A91248FDF74AF92620FDF732
:1045600099FB002205212620FDF7A4FB06B010BD13
:10457000004C004000100240001001403004024096
:10458000C406002000480040000C014030000240FA
:104590000807002000500040001401400044004083
:1045A0000008014070B504460D46164694F83E00DA
:1045B000202816D105B10EB9012070BD00BF94F8B6
:1045C0003C00012801D10220F7E7012084F83C00DB
:1045D00000BF0020206332462946204601F066FBDA
:1045E000EBE70220E9E770B504460D46164694F85D
:1045F0003E00202816D105B10EB9012070BD00BFC4
:1046000094F83C00012801D10220F7E7012084F84A
:104610003C0000BF0020206332462946204601F0BE
:1046200091FBEBE70220E9E71D4A0168914236D190
:104630001C49098801F4004189BB1A49098801F421
:10464000804171B1184909780A2903D00021154A1F
:10465000118024E01349098841F40041114A118076
:104660001DE0114909780D2906D10E49098841F448
:1046700080410C4A118012E00B490978094A1288DE
:10468000C2F30D02094B995406490988491C054A91
:10469000118011460988C72901DD0021118070476A
:1046A000004400407400002076000020445900209F
:1046B00070472DE9F84F04460E46174699464FF0CD
:1046C000000A94F83D0020285AD106B117B90120FC
:1046D000BDE8F88F00BF94F83C00012801D102200A
:1046E000F6E7012084F83C0000BF00202064212070
:1046F00084F83D00FDF734FA8246A784E784A06879
:10470000B0F5805F04D1206910B90025B04602E001
:1047100035464FF0000800BF002084F83C0000BF81
:104720001BE05346002280212046CDF8009001F086
:104730005CFB08B10320CBE745B9B8F80000C0F333
:1047400008002168486008F1020803E02878216821
:1047500048606D1CE08C401EE084E08C0028E0D1B5
:104760005346002240212046CDF8009001F03DFB49
:1047700008B10320ACE7202084F83D000020A7E723
:104780000220A5E7704700BFFEE7000000B585B036
:104790000020019002900390049000BF10488069AF
:1047A00040F010000E4988610846806900F0100052
:1047B000009000BF00BF00224FF400510948FDF7F0
:1047C000C9F94FF40050019001200290002003909D
:1047D0000220049001A90348FDF70AF805B000BDC6
:1047E000001002400010014010B54FF40051024883
:1047F000FDF7A6F910BD00000010014008B500BF8C
:104800001548406940F00200134948610846406974
:1048100000F00200009000BF00BF00BF08464069E2
:1048200040F0010048610846406900F00100009036
:1048300000BF00BF002205213A20FDF73BFA3A20D5
:10484000FDF728FA002205210D20FDF733FA0D208F
:10485000FDF720FA08BD00000010024000B585B049
:104860000020019002900390049000BF1F488069CF
:1048700040F020001D4988610846806900F0200052
:10488000009000BF00BF00BF0846806940F00400F0
:1048900088610846806900F00400009000BF00BFF6
:1048A00000BF0846806940F00800886108468069BA
:1048B00000F00800009000BF00BF00BF08468069FC
:1048C00040F0100088610846806900F010000090F8
:1048D00000BF00BF0420019000200290022003903E
:1048E00001A90348FCF784FF05B000BD0010024099
:1048F0000014014000B595B0002011901290139063
:1049000014900F9010901C2108A8FBF7B0FC2021F8
:104910006846FBF7ACFC3748374908600020486020
:1049200000213548816041F61F41C16000210161CD
:10493000416180218161FDF723FE08B1FCF7B0FBE6
:104940004FF48050119011A92B48FDF7C1FF08B119
:10495000FCF7A6FB2848FFF752FA08B1FCF7A0FBCA
:1049600000200F9010900FA92348FDF7BBFD08B160
:10497000FCF796FB60200890002009900A900B90AD
:104980000C900D900E90002208A91B48FFF7B9F972
:1049900008B1FCF785FB042208A91748FFF7B1F915
:1049A00008B1FCF77DFB082208A91348FFF7A9F915
:1049B00008B1FCF775FB0C2208A90F48FFF7A1F915
:1049C00008B1FCF76DFB002000900190029003906D
:1049D00004904FF400500590002007906946064867
:1049E000FDF746FD08B1FCF75BFB0348FFF73AF91A
:1049F00015B000BD002C01404804002000B58BB06C
:104A000000200790089009900A9005900690019068
:104A10000290039004904FF08040234908604720A3
:104A200048600021204881604FF6FF71C16000217D
:104A3000016180218161FDF7A3FD08B1FCF730FB26
:104A40004FF48050079007A91748FDF741FF08B1C0
:104A5000FCF726FB1448FEF7E3FE08B1FCF720FB49
:104A600000200590069005A90F48FDF73BFD08B111
:104A7000FCF716FB0020019001200290002003901B
:104A80000490002201A90848FEF760FE08B1FCF777
:104A900007FB042201A90448FEF758FE08B1FCF701
:104AA000FFFA0BB000BD00009004002000B58BB0F1
:104AB00000200790089009900A90059006900190B8
:104AC00002900390049023482349086047204860DF
:104AD0000021214881604FF6FF71C1600021016112
:104AE00080218161FDF74CFD08B1FCF7D9FA4FF444
:104AF0008050079007A91848FDF7EAFE08B1FCF7B7
:104B0000CFFA1548FEF78CFE08B1FCF7C9FA002071
:104B10000590069005A91048FDF7E4FC08B1FCF7E4
:104B2000BFFA002001900120029000200390049021
:104B3000002201A90848FEF709FE08B1FCF7B0FA07
:104B4000042201A90448FEF701FE08B1FCF7A8FA07
:104B50000BB000BD00040040D804002000B58BB0AD
:104B600000200790089009900A9005900690019007
:104B7000029003900490234823490860472048602E
:104B80000021214881604FF6FF71C1600021016161
:104B900080218161FDF7F4FC08B1FCF781FA4FF444
:104BA0008050079007A91848FDF792FE08B1FCF75E
:104BB00077FA1548FEF734FE08B1FCF771FA0020C9
:104BC0000590069005A91048FDF78CFC08B1FCF78C
:104BD00067FA0020019001200290002003900490C9
:104BE000002201A90848FEF7B1FD08B1FCF758FA08
:104BF000042201A90448FEF7A9FD08B1FCF750FA08
:104C00000BB000BD000800402005002000B58BB0AF
:104C100000200790089009900A9005900690019056
:104C2000029003900490234823490860472048607D
:104C30000021214881604FF6FF71C16000210161B0
:104C400080218161FDF79CFC08B1FCF729FA4FF443
:104C50008050079007A91848FDF73AFE08B1FCF705
:104C60001FFA1548FEF7DCFD08B1FCF719FA002021
:104C70000590069005A91048FDF734FC08B1FCF733
:104C80000FFA002001900120029000200390049070
:104C9000002201A90848FEF759FD08B1FCF700FA07
:104CA000042201A90448FEF751FD08B1FCF7F8F908
:104CB0000BB000BD000C00406805002000B595B0A9
:104CC000002011901290139014900F9010901C21BE
:104CD00008A8FBF7CCFA20216846FBF7C8FA37484A
:104CE000374908600020486000213548816041F65E
:104CF0001F41C16000210161416180218161FDF797
:104D00003FFC08B1FCF7CCF94FF48050119011A989
:104D10002B48FDF7DDFD08B1FCF7C2F92848FFF785
:104D20006EF808B1FCF7BCF900200F9010900FA9A5
:104D30002348FDF7D7FB08B1FCF7B2F960200890D3
:104D4000002009900A900B900C900D900E9000227C
:104D500008A91B48FEF7D5FF08B1FCF7A1F904220A
:104D600008A91748FEF7CDFF08B1FCF799F908220A
:104D700008A91348FEF7C5FF08B1FCF791F90C220A
:104D800008A90F48FEF7BDFF08B1FCF789F900201C
:104D9000009001900290039004904FF40050059011
:104DA0000020079069460648FDF762FB08B1FCF752
:104DB00077F90348FEF756FF15B000BD00340140F7
:104DC000B005002010B50B480B4908604FF4E130E6
:104DD0004860002108488160C16001610C21416187
:104DE00000218161C161FFF745FA08B1FCF758F96C
:104DF00010BD0000004C0040F805002010B50B4825
:104E00000B4908604FF41650486000210848816043
:104E1000C16001610C21416100218161C161FFF725
:104E200029FA08B1FCF73CF910BD00000050004021
:104E30003C06002010B50B480B4908604FF4165093
:104E40004860002108488160C16001610C21416116
:104E500000218161C161FFF70DFA08B1FCF720F96B
:104E600010BD0000004800408006002000BFFEE7A3
:104E700000BFFEE770B5204B1A7CD9689868FBF735
:104E80002EFE05461D49FBF755FA04461C49FBF763
:104E900083FA194948611B4B1A7CD9689868FBF75B
:104EA0001EFE05461549FBF745FA04461449FBF773
:104EB00073FA14494861144B1A7CD9689868FBF757
:104EC0000EFE05460D49FBF735FA04460C49FBF783
:104ED00063FA0D4948610D4B1A7CD9689868FBF755
:104EE000FEFD05460549FBF725FA04460449FBF794
:104EF00053FA0649486170BDE85E00200000344363
:104F0000DA0F4940045F0020205F0020CC5E0020C3
:104F100013481449086000204860886012484861BE
:104F2000124808614FF07E50C8600D481049086073
:104F30000020486088600C4848610C4808614FF0C8
:104F40007E50C8600B480C490860002048608860AB
:104F500005484861054808614FF07E50C8607047B9
:104F6000CDCC4C3DD858002000002041000020C18D
:104F7000F4580020CDCCCC3D1059002008B508498C
:104F80000968C9084FF47A72B1FBF2F1414300910C
:104F900000BF00BF00994A1E00920029F9D108BD48
:104FA0000C0000202DE9F04F85B005460C46164652
:104FB0001F4614216846FBF75AF94FF00008C14616
:104FC000C246C346C7EBC70000F5FA780F98C0EB9E
:104FD000C00000F5FA791198C0EBC00000F5FA7A2C
:104FE0001398C0EBC00000F5FA7B55208DF8000047
:104FF0008DF8010011208DF802008DF80350042077
:105000008DF80400E0B28DF80500200A8DF8060046
:105010008DF8076008F0FF008DF808004FEA1820AF
:105020008DF809000E988DF80A0009F0FF008DF840
:105030000B004FEA19208DF80C0010988DF80D0028
:105040000AF0FF008DF80E004FEA1A208DF80F00CD
:1050500012988DF810000BF0FF008DF811004FEA48
:105060001B208DF812004FF6FF7313226946034888
:10507000FFF71FFB05B0BDE8F08F00003C060020E5
:105080002DE9FE4305460C4616461F4600200090BB
:10509000019002908046C7EBC70000F5FA785520D2
:1050A0008DF800008DF8010008208DF802008DF8C1
:1050B000035001208DF80400E0B28DF80500200AAD
:1050C0008DF806008DF8076008F0FF008DF80800E5
:1050D0004FEA18208DF809004FF6FF730A2269463F
:1050E0000248FFF7E6FABDE8FE8300003C06002018
:1050F000FEB5374801F0E2FB0446364801F0DEFB1E
:105100000546002001F0DAFB0646334801F0D6FBE5
:105110000746324800212B463246CDE90041029035
:1051200039462F4800F074F82E4801F0C7FB0446BA
:105130004FF0864001F0C2FB05462B4801F0BEFB54
:1051400006462A4801F0BAFB0746294800212B46AB
:105150003246CDE9004102903946264800F058F821
:10516000002001F0ABFB0446234801F0A7FB0546F5
:105170001D4801F0A3FB06461C4801F09FFB0746B3
:105180001E4801212B463246CDE9004102903946A6
:105190001B4800F03DF81B4801F090FB04461A48FC
:1051A00001F08CFB0546104801F088FB06460F48CD
:1051B00001F084FB0746114802212B463246CDE917
:1051C000004102903946114800F022F8FEBD00006F
:1051D0000000FA4200004A4300000C439A99193F2C
:1051E000E85E00200000FAC20000F0C20000F042B9
:1051F0009A99993E045F00200000E642CDCCCC3D58
:10520000205F00200000BE420000F0C1CC5E002004
:1052100070B504AC70CC026041608360C4600574FA
:10522000866170BD10B5044603F06CFB01F052FDC1
:1052300002F034FA0348006803F038FC03F08CFBFA
:1052400010BD0000D40100201CB50548202100231A
:105250000A01CDE9001003A1054803F0D9FD1CBDEA
:10526000D401002053746172745F7461736B000029
:105270002552000810B500BF502080F31188BFF3FD
:105280004F8FBFF36F8F00BF03F056FE18B14FF082
:1052900080500449086000BF002080F3118800BFDF
:1052A00010BD000004ED00E000B58FB0282105A876
:1052B000FAF7DDFF14216846FAF7D9FF01200590BF
:1052C00000040690002007900120099002200C9015
:1052D000C1030D914FF4E0110E9105A8FCF794FE67
:1052E00008B1FBF7DDFE0F200090022001900020A6
:1052F00002904FF4806003900020049002216846E1
:10530000FCF72AFD08B1FBF7CBFE0FB000BD7047DC
:1053100010B50248FEF7DBFB10BD00009004002032
:1053200010B50248FEF7D3FB10BD0000D8040020E2
:1053300010B50248FEF7CBFB10BD00002005002091
:1053400010B50248FEF7C3FB10BD00006805002041
:1053500010B529480068C06800F00100002844D05A
:1053600026480068401C25490860084600684EF63B
:105370006021884206D921484068401C1F49486086
:10538000002008601D4909681C4A52684EF66023D7
:1053900003FB0210FBF7C6F918498860002015E0EE
:1053A0001749095C491C164A11541146095C032926
:1053B00003DB0021134A42F820101149095CFF2940
:1053C00002DB00210E4A1154411CC8B20428E7DB5D
:1053D0000D480078401C0C49087008460078642885
:1053E00003DD00200870FFF7FFF96FF001000249AC
:1053F0000968086110BD0000505A0020985A00202A
:10540000EC0100204C5C0020A001002010B50248F7
:10541000FEF75DFB10BD00004C07002010B50268D0
:10542000204B98420ED0204B98420BD0B0F1804FC9
:1054300008D01E4B984205D01D4B984202D01D4B00
:10544000984203D122F070024B681A43154B9842E0
:105450000ED0154B98420BD0B0F1804F08D0134BB3
:10546000984205D0124B984202D0124B984203D179
:1054700022F44072CB681A4322F080034C6943EA5D
:10548000040202608B68C3620B688362054B98421A
:1054900002D0054B984201D10B690363012343619C
:1054A00010BD0000002C0140003401400004004009
:1054B00000080040000C004030B501F01F05012439
:1054C00004FA05F3046A9C430462046A01F01F05B0
:1054D00002FA05F52C43046230BD30B50C468168F4
:1054E00021F47F4142EA032525432943816030BDF1
:1054F0000A46816821F0700142F007031943816078
:105500007047000030B5056A25F001050562026AA2
:105510004368846924F0700424F003040D682C436C
:1055200022F002028D682A43104DA84200D103E008
:105530000F4DA84206D100BF22F00802CD682A43D1
:1055400022F00402094DA84202D0094DA84207D119
:1055500023F4807323F400734D692B438D692B432F
:10556000436084614D684563026230BD002C014098
:105570000034014030B5056A25F010050562026A65
:105580004368846924F4E04424F440740D6844EAD8
:10559000052422F020028D6842EA0512124DA8422D
:1055A00000D103E0114DA84207D100BF22F08002D4
:1055B000CD6842EA051222F040020B4DA84202D00B
:1055C0000A4DA84209D123F4806323F400634D6996
:1055D00043EA85038D6943EA8503436084614D682E
:1055E0008563026230BD0000002C014000340140A0
:1055F00030B5056A25F480750562026A4368C4699E
:1056000024F0700424F003040D682C4322F400728B
:105610008D6842EA0522124DA84200D103E0114DE7
:10562000A84207D100BF22F40062CD6842EA0522F9
:1056300022F480620A4DA84202D00A4DA84209D144
:1056400023F4805323F400534D6943EA05138D6915
:1056500043EA05134360C4614D68C563026230BD0F
:10566000002C01400034014030B5056A25F4805516
:105670000562036A4468C26922F4E04222F440727F
:105680000D6842EA052223F400538D6843EA05338E
:10569000084DA84202D0084DA84204D124F4804409
:1056A0004D6944EA85144460C2614D680564036233
:1056B00030BD0000002C01400034014030B50B46E5
:1056C0001446026A056A25F001050562816921F028
:1056D000F00141EA041122F00A021A4381610262D8
:1056E00030BD000070B50C461546066A26F001066E
:1056F00006628169026A154EB0420ED0144EB04265
:105700000BD0B0F1804F08D0124EB04205D0124EEF
:10571000B04202D0114EB04201D1012600E0002675
:105720001EB121F00301294301E041F0010121F004
:10573000F001F02606EA0316314322F00A0204F0D3
:105740000A0632438161026270BD0000002C0140F4
:10575000003401400004004000080040000C0040FC
:1057600030B50B461446056A25F0100505628169BF
:10577000026A21F4704141EA043122F0A00242EAB7
:1057800003128161026230BD70B50C461546066A8F
:1057900026F0100606628169026A21F4407141EA2E
:1057A000052121F470414FF4704606EA0336314377
:1057B00022F0A002A02606EA0416324381610262AA
:1057C00070BD70B50C461546066A26F480760662F2
:1057D000C169026A21F00301294321F0F001F0269A
:1057E00006EA0316314322F400724FF4007606EA0B
:1057F00004263243C161026270BD70B50C46154685
:10580000066A26F480560662C169026A21F4407174
:1058100041EA052121F470414FF4704606EA03364F
:10582000314322F400524FF4005606EA0436324364
:10583000C161026270BD00002DE9F84F4FF0000B0E
:10584000414800680068C0F3001BBBF1000F70D036
:1058500000BF002000903C480068006800903A4873
:1058600000684068009000BF00BF3748FEF79DFB0E
:1058700036480068D0F804A0CAF114003449087012
:105880003448007855284BD132484078532847D1C6
:10589000304989782F4AD27841EA022108B2FAF7D2
:1058A00046FF804600222C4BFAF75BFE064600229C
:1058B0002A4BFAF7C8FE0446FAF78EFF28494860DB
:1058C00024490979234A527941EA022108B2FAF7B8
:1058D0002EFF80460022204BFAF743FE06460022A8
:1058E0001E4BFAF7B0FE0446FAF776FF1C498860B3
:1058F00018498979174AD27941EA022108B2FAF7A0
:1059000016FF06460022144BFAF72BFE044600222F
:10591000124BFAF798FE8046FAF75EFF10490860CE
:1059200000200B490870084601780A48FAF79FFCE6
:1059300000BF142207490448FEF734FE0248FEF770
:1059400073FBBDE8F88F0000F8050020C4060020B6
:10595000A1010020B85A0020008066400000E0400D
:10596000A45A002010B50248FEF75EFB10BD0000EF
:105970003C06002070B505466C6A0020E085E08496
:105980002046FEF745FB70BD70B506460025746ADB
:1059900020684069C0F3C01594F83D00212805D166
:1059A00025B10020E084204600F085F82068406999
:1059B000C0F3801594F83E00222805D125B10020BF
:1059C000E085204600F04CF8206C40F01000206488
:1059D0002046FEF71DFB70BD70B505466C6A286851
:1059E000006800F02000F8B90020E0852068C06859
:1059F00020F480702168C8602068406920F00100B0
:105A0000216848612068406920F0400021684861B1
:105A1000202084F83E00206B012805D12068C06852
:105A200020F010002168C860206B012804D1A18DEE
:105A30002046FEF7B9FA02E02046FEF7F5FD70BDFC
:105A400070B505466C6A206B012805D1A08D410810
:105A50002046FEF7A9FA02E02046FEF729FE70BDB7
:105A60000168C96821F490710268D16001684969D0
:105A700021F0010102685161016B012905D1016822
:105A8000C96821F010010268D160202180F83E1021
:105A900000210163704710B504462068C06820F0FB
:105AA00040002168C860202084F83D002046FEF7B1
:105AB00069FE002010BD0168C96821F0C0010268BC
:105AC000D160202180F83D107047F8B5044694F865
:105AD0003E00222869D1A068B0F5805F0CD1206912
