:020000040800F2
:10000000000A0020ED0100085F2C0008852A000886
:100010005D2C00089513000855350008000000000D
:10002000000000000000000000000000372D000864
:10003000BF14000800000000352D0008812F0008C3
:10004000070200080702000807020008070200086C
:10005000070200080702000807020008070200085C
:10006000070200080702000807020008070200084C
:10007000070200080702000807020008070200083C
:10008000070200080702000807020008070200082C
:10009000070200080702000807020008070200081C
:1000A000070200080702000807020008070200080C
:1000B00007020008070200080702000807020008FC
:1000C00007020008070200080702000807020008EC
:1000D00007020008313500083D35000849350008A1
:1000E00007020008070200080702000807020008CC
:1000F00007020008070200080702000807020008BC
:1001000007020008070200080702000807020008AB
:100110007D30000839310008E52F0008070200088B
:1001200007020008070200088914000807020008F7
:1001300000F002F800F04AF80AA090E8000C8244AF
:100140008344AAF10107DA4501D100F03FF8AFF28C
:10015000090EBAE80F0013F0010F18BFFB1A43F0A5
:10016000010318470063000020630000103A24BF19
:1001700078C878C1FAD8520724BF30C830C144BF0C
:1001800004680C607047000000230024002500264E
:10019000103A28BF78C1FBD8520728BF30C148BFEA
:1001A0000B607047662905F04487642900F07E8063
:1001B000002070471FB500F097FB040000200021CD
:1001C00004F0E0FDE0601FBD10B510BD00F0ACFC18
:1001D0001146FFF7EFFF03F0E7FF00F0CAFC03B49E
:1001E000FFF7F2FF03BC03F0FDFC00000948804765
:1001F00009480047FEE7FEE7FEE7FEE7FEE7FEE709
:10020000FEE7FEE7FEE7FEE704480549054A064B20
:1002100070470000E32F00083101000800040020AF
:10022000000A002000060020000600200FB4044948
:1002300010B503AA029800F045FB10BC5DF814FB52
:10024000140000202DE9F0410E46044600202062F3
:100250002046E168884730B3252805D0D4E901213C
:100260009047206A401CF2E7E16820460027884753
:10027000050018D0A5F14100192802D820354FF407
:1002800000673246294620462760FFF78BFF40B1C2
:10029000012804D0F61D26F007060836D8E7361DDB
:1002A000D6E72846DAE7206ABDE8F0812DE9F0417B
:1002B0000646002410687529314616A510D0AFF304
:1002C0000080002802DA404213A507E031688A075F
:1002D00001D512A502E0490704D511A5012401E0CA
:1002E000AFF3008000210A2206F1240709E0B0FBE9
:1002F000F2FCB0FBF2F302FB1C00303078541846DD
:10030000491C0028F3D123462A463046BDE8F04177
:1003100000F06FB8000000002D0000002B0000006E
:100320002000000010B5203AC0F00B80B1E8185052
:10033000203AA0E81850B1E81850A0E81850BFF4CF
:10034000F5AF5FEA027C24BFB1E81850A0E818506E
:1003500044BF18C918C0BDE810405FEA827C24BFC2
:1003600051F8043B40F8043B08BF7047D20728BF50
:1003700031F8023B48BF11F8012B28BF20F8023B9F
:1003800048BF00F8012B70474FF0000200B513463C
:1003900094469646203922BFA0E80C50A0E80C50A5
:1003A000B1F12001BFF4F7AF090728BFA0E80C5056
:1003B00048BF0CC05DF804EB890028BF40F8042B4F
:1003C00008BF704748BF20F8022B11F0804F18BFBC
:1003D00000F8012B704770477047704710B500F068
:1003E00087FA006810BD10B5044600F081FA046079
:1003F00010BD2DE9F0470D4699469246044600F19E
:1004000024080168880604D5E06921F01001216004
:1004100000E00120A84201DD471B00E00027A169A0
:100420007A1902EB0900081AA0612078C00602D4EC
:100430002046AFF30080002608E0D4E901211AF835
:1004400006009047206A401C761C20624E45F4DB73
:100450002078C0060AD52046AFF3008006E0D4E934
:10046000012130209047206A401C2062381EA7F1ED
:100470000107F4DC07E0D4E9012118F805009047F2
:10048000206A401C2062281EA5F10105F3DC2046ED
:10049000AFF300802078000602D50220BDE8F08787
:1004A0000120FBE770472DE9FF4F0C461E464FF039
:1004B000FF378BB0D2E90001DDF860800A908A46F0
:1004C000C1F30A5505B93D46002108464FF000002A
:1004D000BAF1000F00F4400005DA00EB80004FF4A1
:1004E000400101EA50004FEA9059B9F1010F00DDD7
:1004F000B9460A9850EA4A000ED044F61050A5F2C8
:10050000FF3545432F14B8F1000F1ED07542291E48
:100510001EDDC9F100021CE0B8F1010F4FF0000030
:1005200001D0302103E0F24305E02154401CB042E9
:10053000FBDB30460022002121540B99C1F80880D2
:10054000C1E900200FB0BDE8F08FBD1B6D1CDEE7D8
:100550004A4600DA694206A800F06CFA06AB93E856
:10056000070003AB83E8070050460A9900F04AFBF6
:100570008DE80700A0F500501F3800900398002D6B
:100580000ADD42F21F014A460844002303A90390F2
:10059000684600F0B3FD09E0A0F500504A461F3858
:1005A000002303A90390684600F0BDFD8DE8070015
:1005B0000004000C03D04FF0FF30410800E010466B
:1005C000B8F1000F03D00022009215461EE0751E00
:1005D00005D400F091F9303262556D1EF9D5B3465D
:1005E0000122084302D000227F1C04E0207830283A
:1005F00001D100227F1E002A099784D01DE0112D11
:1006000007DA00F079F9303262556D1C50EA0102C8
:10061000F5D1084302D00098C8B10EE00021681E51
:1006200005E0235C625C63542254401E491C8142F5
:10063000F7DBAB46A81B401E0990002004F80B0016
:100640000B98099AC0F80880C0E9002B7AE71126B8
:100650004FF0000857E72DE9F04F88460446D21DB9
:1006600022F0070191B0D1E90001CDE90A0102F0C1
:1006700072FF02460B98C00F01D02D2007E02068C2
:10068000810701D52B2002E0202101EAC000032AC6
:10069000099001D0072A05DB03464146204600F0B9
:1006A00089F90BE12078800601D5E06900E0062099
:1006B000B8F1650F814606D0B8F1660F18D0B8F1D1
:1006C000670F70D131E00020B9F1110F009001DB0C
:1006D000112301E009F101030AAA01A90CA8FFF7FF
:1006E000E2FEDDE90C70002609F10105834647E0D2
:1006F00001204B4600904FF000470AAA01A90CA820
:10070000FFF7D1FEDDE90DB00C995D46002610B96A
:1007100009F101000D18B9EB050003D4C0F1FF3653
:1007200009F10105A5EB09002BE0B9F1010F01DA90
:100730004FF001090020B9F1110F0090484601DD8A
:10074000112300E003460AAA01A90CA8FFF7ABFE9B
:10075000DDE90C704D4600268346207800070AD458
:10076000AB4500DA5D4601A8012D04DD411911F801
:10077000011C302907D04F4502DA17F1040F04DAC3
:10078000012082460FE06D1EEEE7002F02DCED1B1C
:100790003E4403E0781CA84200DD7D1CB81B00F13C
:1007A000010A4FF000472078000703D4AA4501DB77
:1007B0004FF0FF3A0021B7F1004F0DF143088DF8DB
:1007C000431024D002202B23002F01DA7F422D2357
:1007D0000A21021EA0F1010000DC5FB197FBF1FCD1
:1007E00097FBF1F201FB1C7C17460CF1300C08F86A
:1007F00001CDEEE7A8F1010003702188090501D5BC
:10080000452100E06521A0F1010800F8011C0998CC
:100810000FA9A1EB0807FF1D00B10120411901EB51
:10082000EA70A1693844081A401EA0612078C00609
:1008300002D42046AFF30080099828B1D4E9012101
:100840009047206A401C20622078C00622D52046AE
:10085000AFF300801EE0002E04DBB34502DD01A8EB
:10086000805D00E03020D4E901219047206A401CDF
:100870002062761CAAF101005FEA000A0AD100F0AA
:1008800033F8C0680168405CD4E901219047206AD0
:10089000401C2062281EA5F10105DCDC07E0D4E93C
:1008A000012118F8010B9047206A401C2062381E75
:1008B000A7F10107F3DC2046AFF30080032011B05D
:1008C00041E60000074B70B50D467B4400F05FF831
:1008D0000446284600F020F910B14FF0FF3070BDFB
:1008E000204670BD7337000000487047BC030020ED
:1008F000004870479C03002030B5B0F10A024FEA6F
:10090000900E71F100034EEA817EB0EB0E0061EBB8
:1009100091014FEA101E4EEA017E10EB0E0041EBF2
:1009200011114FEA102E4EEA016E10EB0E0041EB52
:1009300011214FEA104E4EEA014E10EB0E0041EB32
:100940001141401841F100014FEAD00040EA4170E6
:100950004FEAD10110EB80054FEA810444EA90741C
:1009600044EB01046D1944EB0404521BA3414FF006
:10097000000348BF0A3200D530BD401C41F10001E0
:1009800030BD000001694A1C02610878704700B55B
:100990008FB0CDE901310021059105497944CDE9B8
:1009A000031011466846FFF74DFC0FB000BD000074
:1009B000E5FFFFFF2DE9F0411F46044603260168CD
:1009C000072A01F4006004DB08B116A505E016A5AE
:1009D00003E008B115A500E015A521F01000206086
:1009E000A069C01EA0610FB1401EA0612046AFF3F8
:1009F00000804FB1D4E9012138469047206A401C5D
:100A00002062C01C206206E0206AFAE7D4E90121D6
:100A100015F8010B9047761EF8D22046AFF3008000
:100A2000BDE8F0814E414E006E616E00494E4600B9
:100A3000696E66002DE9F047814616468AB0354852
:100A400078440DC88DE80D0032487844801C03AC12
:100A50000DC884E80D0041F69B300844372190FB17
:100A6000F1F290FBF1F5A5F1800501FB12041B3CAE
:100A700002D56442012000E00020DFF898A0804603
:100A80000027FA44AAF1BE0A0EE0E0070AD0324677
:100A9000684607EB470101230AEB810100F043FBA5
:100AA0008DE8070064107F1C002CEED1194F7F44A5
:100AB000AE3F19E0E80715D007EB04100DF1180A56
:100AC00090E80E008AE80E00C068F04201D1981943
:100AD00008903246012306A903A800F024FB03ABCB
:100AE00083E807006D10641C002DE3D14FF0010373
:100AF00032466946B8F1000F03A802D000F0FEFAB2
:100B000001E000F010FBC9E90001C9F808200AB0B3
:100B1000BDE8F087085A0000007B00F080007047B5
:100B2000004870479C0300207546FFF7F9FFAE466A
:100B300005006946534620F00700854618B020B5E9
:100B4000FFF762FBBDE820404FF000064FF00007C2
:100B50004FF000084FF0000B21F00701AC46ACE865
:100B6000C009ACE8C009ACE8C009ACE8C0098D46D2
:100B7000704710B50446AFF300802046BDE8104032
:100B8000FFF72DBB4FF0013C50F8042B51F8043B0C
:100B90009A4221D1A2EB0C03934313EACC1317D151
:100BA00050F8042B51F8043B9A4215D1A2EB0C03E8
:100BB000934313EACC130BD150F8042B51F8043BA8
:100BC0009A4209D1A2EB0C03934313EACC13DBD076
:100BD0004FF00000704700BFD01A01BAB1FA81F19E
:100BE00001F0180122FA01F0CB40C1F12001DBB283
:100BF000C0B2C01A2CFA01F3D11A914311EAC31101
:100C0000E6D170475FEA400C08BF91F0000F4FEA51
:100C10008C234FEAC12243EA51514FEA1C5018BFBE
:100C200000F5F0404FEA300018BF41F000415FEAA4
:100C30006C5C00F02980BCF1FF3F08BF40F08040B1
:100C40007047130C06BF12044FF0100C4FF0000C4D
:100C5000130E04BF12020CF1080C130F04BF120193
:100C60000CF1040C930F04BF92000CF1020CD30F93
:100C700004BF52000CF1010C11464FF00002A0F12C
:100C80001F00A0EB0C00704711F0004F08BF704729
:100C900031F000413FF4D5AF0B0C06BF09044FF013
:100CA000100C4FF0000C0B0E04BF09020CF1080CE5
:100CB0000B0F04BF09010CF1040C8B0F04BF89005A
:100CC0000CF1020CCB0F04BF49000CF1010CCCF16C
:100CD0002003A0EB0C0022FA03F302FA0CF241EA23
:100CE000030100F10100704720F07F4C80EA03000F
:100CF00023F07F47ACEB070303F57C5300F0004083
:100D000003F1FF032DE980494FEA154B09B44FEA7F
:100D1000144325EA0B4E24EA03480FF2042606EB9F
:100D2000132749083E785FEA320203FB0667C7F5DE
:100D3000000707FB06F64FEA54374FEAD64606F19E
:100D4000020607FB066CCCF1005C4FEA1C472CEA5C
:100D5000074C07FB06F40CFB06F504EB15464FEABF
:100D6000961634BF00204FF000404FEAD13706FB03
:100D700007FC4FEA1C4C0CFB0BF7D21B03FB0CF7D8
:100D800061EB07010CFB0EF7B0EB074072EB17426B
:100D90000CFB08F734BFA2EB0742B2EB074261EB52
:100DA00017414FEA0C444FEA910706FB07FC4FEA54
:100DB0001C4C0CFB0BF7B0EBC74072EB573203FB3C
:100DC0000CF734BFA2EBC742B2EBC74261EB57311D
:100DD0000CFB0EF7B0EBC70072EB57720CFB08F779
:100DE00034BFA2EBC702B2EBC70261EB5771039F9E
:100DF0004FEA816141EA921104EBCC044FEAD1370A
:100E00004FEA826206FB07FC42EA90124FEA8060DA
:100E10004FEA1C4C0CFB0BF7D21B03FB0CF761EBEE
:100E200007010CFB0EF7B0EB074072EB17420CFB0F
:100E300008F734BFA2EB0742B2EB074261EB174160
:100E40004FEA8C554FEA910704EB9C2406FB07FC04
:100E50004FEA1C4C0CFB0BF7B0EBC74072EB573260
:100E600003FB0CF734BFA2EBC742B2EBC74261EB06
:100E700057310CFB0EF7B0EBC70072EB57720CFB4F
:100E800008F734BFA2EBC702B2EBC70261EB5771A0
:100E900015EB4C254FEA816141EA92114FEA8262DB
:100EA0004FEAD13742EA901206FB07FC44F10004F6
:100EB0004FEA80604FEA1C4C0CFB0BF7D21B03FB84
:100EC0000CF761EB07010CFB0EF7B0EB074072EB80
:100ED00017420CFB08F734BFA2EB0742B2EB074204
:100EE00061EB174115EB1C154FEA813141EA924144
:100EF0004FEA823242EA90424FEA80304FEA0C7663
:100F000044F1000448EA03434EEA0B484FF0000E58
:100F1000B2EB080C71EB030724BF624639464EEB77
:100F20000E0E4FF0000B0018524149414BEB0B0BDA
:100F3000B2EB080C71EB03077BF1000B24BF624698
:100F400039464EEB0E0E4FF0000B0018524149414E
:100F50004BEB0B0BB2EB080C71EB03077BF1000BB7
:100F600024BF624639464EEB0E0E51EA020718BF07
:100F700046F0010616EB0E7655F1000254F1000121
:100F800003D5BDE88901BDE80088BDE88901BDE859
:100F90000048B619524141EB0101A3F1010370472A
:100FA00080807F7E7D7C7B7A7978777676757473A6
:100FB000727171706F6E6E6D6C6C6B6A6A69686865
:100FC000676666656464636362616160605F5F5EFB
:100FD0005E5D5D5C5C5B5B5A5A5959585857575671
:100FE00056555555545453535252525151505050D6
:100FF0004F4F4F4E4E4D4D4D4C4C4C4B4B4B4A4A28
:101000004A4949494848484747474746464645456B
:1010100045444444444343434342424242414141A4
:10102000002B9C4630D477002BD01CB54FEA3707F5
:1010300003B44FF010004FF01001BAF1000F06D0CA
:10104000BCF1000FDCBF40F0080040F008014FF099
:1010500000000FBCBDE810400BF1010BBBF1010F0C
:1010600008BF5FEA170722BF12F1010211F1010167
:101070004FF0004143F1000300F0004043EA00005C
:101080007047F9D35708D0E746EA064613F1400FF8
:101090004FEA16461FDD13F1200FDFBF16430A4645
:1010A000002120335B42BED0C3F1200746EA06464A
:1010B00002FA07F74FEA164646EA0706C3F1200789
:1010C00022FA03F201FA07F721FA03F14FF00003C5
:1010D00042EA0702A7E746EA020646EA06464FEA60
:1010E000164646EA0106BCBF46EA0646360C4FF0F5
:1010F00000034FF000024FF0000194E72DE9804C0F
:101100009A46934670B491E8380007C831EA400C1B
:1011100048BF34EA430C03D5FFF7E6FDFFF780FF35
:10112000F0BCBDE8008C2DE9804C9A46934670B423
:1011300091E8380007C810F0804F08BF13F0804FC7
:1011400003D100F005F8FFF76BFFF0BCBDE8008CA1
:1011500020F07F4780EA030023F07F4C07EB0C036D
:10116000A3F57C5300F00040A3F1FE0392F0000FC2
:1011700000F0B38095F0000F00F077802DE9014971
:101180004FEA11404FEA144621EA004800FB06FCF2
:1011900024EA064708FB06F607FB08F800FB07F7FA
:1011A00018EB06484CEB164C4FEA124B18EB07486D
:1011B0004FEA15464CEB174022EA0B4E0BFB06FCA0
:1011C00025EA06470EFB06F607FB0EFE0BFB07F7AC
:1011D0001EEB064E4CEB164C4FF000061EEB074E76
:1011E0004CEB174B18EB0B0840F1000018EB0E0B03
:1011F00058EB000840F100008F1A4FF000013CBF8F
:10120000C943661B14BFB5EB040C00213CBFC943A6
:10121000F61B4FEA17444EEA8E0E27EA04454FEAC2
:101220001C4704FB07622CEA074C05FB07F70CFB85
:1012300005F604FB0CFC16EB074642EB174216EBD7
:101240000C4642EB1C421BEB060658EB02024141E6
:1012500046EA9E0601D5BDE80189B619524141EB27
:101260000101A3F10103BDE801894FEA14454FEAEA
:10127000114724EA054621EA074C05FB07F406FB63
:1012800007F70CFB06F105FB0CFC11EB074144EBE7
:1012900017444FEA124711EB0C4144EB1C4422EA7D
:1012A000074C05FB07F206FB07F70CFB06F605FBF0
:1012B0000CFC16EB074642EB174216EB0C4642EBD2
:1012C0001C456A1854F1000148BF7047B6195241D5
:1012D00041EB0101A3F10103704795F0000F37D0F6
:1012E0004FEA11424FEA144721EA024624EA074C2A
:1012F00002FB07F106FB07F70CFB06F402FB0CFCF4
:1013000014EB074441EB17414FEA154714EB0C442B
:1013100041EB1C4125EA074C02FB07F506FB07F7EA
:101320000CFB06F602FB0CFC16EB074645EB1745DB
:1013300016EB0C4645EB1C42121951F1000148BF57
:101340007047B619524141EB0101A3F10103704707
:101350004FEA14454FEA114724EA054621EA074CB3
:1013600005FB07F106FB07F70CFB06F24FF0000642
:1013700005FB0CFC12EB074241EB174112EB0C4250
:1013800051EB1C4148BF7047921841EB0101A3F19A
:1013900001037047FEE7012A06D01AB1022A03D0E2
:1013A0000020704704F0D0BD04F01ABB2DE9F047CF
:1013B00005460C462F4830499146854201DA0546DC
:1013C00002E08D4200DD0D468C4201DD0C4602E05C
:1013D000844200DA04462146284603F051FBDFF838
:1013E0009C80274E58B10120BDE8F0874146284631
:1013F00004F0AAFD0546B0F17E5F05DC14E020464E
:10140000014604F099FC07462946084604F094FC7E
:10141000394604F0E5FA04F0B7FA03F07DFC002247
:10142000334604F09FF8E1D32846014604F084FCDB
:1014300007462146084604F07FFC0146384604F082
:10144000CFFA04F0A1FA03F067FC0022334604F05F
:1014500089F807D24146204604F076FD0446094843
:101460008442E6DC4A4621462846BDE8F04703F0C0
:1014700007BB00000000204100002042CDCCCC3D45
:10148000AA9146400000A040014800F0D7B80000F3
:10149000CC01002030B590F840500124AC40C56B21
:1014A0006C60046863604368102B036803D0996024
:1014B0000068C26030BD9A600068C16030BD70478E
:1014C00072B6FEE710B590F821100022022905D06F
:1014D0000421816380F82020012010BD01680B6881
:1014E00023F00E030B6001680B6823F001030B600F
:1014F00090F84030C46B012101FA03F3636080F877
:10150000211080F82020104610BD00002DE9F05F6A
:1015100090F821100024022903D0042181630124C2
:1015200085E001680A6822F00E020A6001680A6814
:1015300022F001020A603F4E3E4FB215DFF8F4C0C0
:10154000DFF8F090DFF8ECA0DFF8E8B0DFF8E4E0D7
:101550000168783F13011502ACF1640CA9F1500940
:10156000AAF13C0AABF1280BAEF1140E4FF480182F
:10157000B14227D9B9420ED0614512D049451DD09C
:10158000514518D0594518D0714501D1424615E052
:10159000294EB14201D1012210E0274E1436B1424A
:1015A00001D110220AE0244E2836B14206D0224A48
:1015B0003C32914201D11A4600E02A461E49091FD9
:1015C0000A602BE0B94213D0614517D0494522D0BB
:1015D00051451DD059451DD0714501D142461AE0F3
:1015E000B14202D14FF0807215E0134EB14201D1E9
:1015F000012210E0104E1436B14201D110220AE04F
:101600000D4E2836B14206D00B4A3C32914201D1F0
:101610001A4600E02A46074980394A60012180F8CD
:101620002110002180F82010416B01B1884720462D
:10163000BDE8F09F80000240080402402DE9F05F01
:10164000C16B0A6801680B68046C4FF0040808FA63
:1016500004F8844D844E854FDFF814C2DFF81492ED
:10166000DFF814A2DFF814B2DFF814E218EA020F70
:1016700065D05FEA437862D50A68920603D40A68A7
:1016800022F004020A60DFF8F0814FF48062016802
:1016900008F1140813011402414524D9A9420DD0C0
:1016A000B1420FD0B9421AD0614515D0494515D085
:1016B000514501D1120312E0594501D104220EE037
:1016C000714501D140220AE06D4D1435A94206D082
:1016D0006B4A2832914201D11A4600E022466749FE
:1016E000091F0A6029E0A94213D0B14215D0B942BE
:1016F00020D061451BD049451BD0514502D14FF444
:10170000800217E0414502D14FF0806212E0594556
:1017100001D104220EE0714501D140220AE0584D6A
:101720001435A94206D0564A2832914201D11A46B0
:1017300000E022464B4908394A60C16A71E04FF027
:10174000020808FA04F818EA020F70D05FEA8378FA
:101750006DD50A68920606D40A6822F00A020A6069
:10176000012180F82110DFF810814FF40072016828
:1017700008F1140813011402414524D9A9420DD0DF
:10178000B1420FD0B9421AD0614515D0494515D0A4
:10179000514501D1120312E0594501D102220EE058
:1017A000714501D120220AE0354D1435A94206D0F9
:1017B000334A2832914201D11A4600E022462F498D
:1017C000091F0A6029E0A94213D0B14215D0B942DD
:1017D00020D061451BD049451BD0514502D14FF463
:1017E000001217E0414502D14FF0007212E0594556
:1017F00001D102220EE0714501D120220AE0204DE4
:101800001435A94206D01E4A2832914201D11A4607
:1018100000E02246134908394A60002180F8201070
:10182000816A00291CD0BDE8F05F0847FFE7082562
:10183000A540154214D01A0712D50A6822F00E02EC
:101840000A6090F84020C36B012101FA02F25A604D
:10185000816380F82110002180F82010016BE0E7FF
:10186000BDE8F09F080002401C000240300002402A
:1018700044000240580002406C000240080402404C
:101880001C04024030B560B11A4B026814219A4220
:1018900009D2194B1344B3FBF1F1890001641749D4
:1018A0000AE0012030BD134B5B421344B3FBF1F15E
:1018B000890001640F490839C163022180F82110B1
:1018C000136843F6F0718B43F0E901142143D0E92A
:1018D00002452C432143046921434469214384691F
:1018E00021431943116000214163012242770177AE
:1018F000084630BD08040240F8FFFDBF000002406A
:1019000070B5044690F82000002501280CD0012075
:1019100084F8200094F821600020012E06D084F87D
:1019200020000225284670BD022070BD022684F8E2
:101930002160A0632068066826F001060660204644
:10194000FFF7A8FDE06A00282068016802D041F096
:101950000E0106E021F0040101602068016841F0F9
:101960000A0101602068016841F001010160D9E7C6
:1019700070B5044600F00AF90546601C02D0044820
:101980000078044400F002F9401BA042FAD370BD75
:10199000000000202DE9F84FDFF8C8910024A9F1DC
:1019A000040B23460F2709F1040AABF1040ED1E022
:1019B0000125A54006EA0502AA4276D1DFF8A8C1B2
:1019C0004E68A6EB0C0866452BD00DDC032E34D0F8
:1019D00005DC36B3012E19D0022E2FD11BE0112EBB
:1019E00016D0122E2AD119E0B8F5881F19D006DCBE
:1019F000B8F5803F15D0B8F5801F1FD111E0B8F5BC
:101A0000001F0ED0B8F5041F18D10AE0CB6815E00E
:101A1000CB681B1D12E0CB6808330FE0CB680C339A
:101A20000CE08B682BB1012B4FF0080303D045610C
:101A300004E0042302E0056100E00023FF2A01D84E
:101A4000064601E000F104064FEA840501D9A5F13C
:101A50002005D6F8008007FA05FC28EA0C0803FAEE
:101A600005F548EA0508C6F800804D68ED0070D518
:101A70003E4DAE6946F00106AE61AD6924F0030645
:101A800005F0010500953A4D06EB050CDCF8085011
:101A9000A607360F07FA06F825EA0805DFF8D4800E
:101AA000404503D14FF0000825E052E0DFF8C88040
:101AB000404502D14FF001081DE0DFF8C0804045ED
:101AC00002D14FF0020816E0DFF8B480404502D1A1
:101AD0004FF003080FE0DFF8AC80404502D14FF033
:101AE000040808E0DFF8A080404502D14FF0050867
:101AF00001E04FF0060808FA06F848EA0508CCF8B5
:101B000008804D68D9F80060ED024D4601D51643B6
:101B100000E096432E604D68DAF80060AD0255464D
:101B200001D5164300E096432E604D68DBF8006057
:101B3000AD035D4601D5164300E096432E604D6827
:101B4000DEF80060ED03754601D5164300E09643CC
:101B50002E60641C0A681646E2407FF429AFBDE897
:101B6000F88F00000804014000001110001002402E
:101B70000000014000080140000C0140001001403D
:101B80000014014000180140001C01400148806819
:101B9000704700000000002002488168027811446C
:101BA0008160704700000020074810B5016841F0CF
:101BB00010010160032000F075F80F2000F006F816
:101BC00000F024F8002010BD0020024070B50D4D3B
:101BD00004464FF47A712878B1FBF0F00A4909689D
:101BE000B1FBF0F000F0DCFA48B9102C07D200226B
:101BF0002146501E00F036F800206C6070BD0120B8
:101C000070BD0000000000200C0000200C4808B54A
:101C1000816941F001018161816901F00101009157
:101C2000C16941F08051C161C06900F080500090ED
:101C30000448416821F0E06141F00071416008BD55
:101C40000010024000000140002809DB00F01F02E4
:101C5000012191404009800000F1E020C0F800110E
:101C600070470000F0B40E4B1B680C46C3F3022310
:101C7000C3F10705042D00D90425191D072901D238
:101C8000002300E0DB1E012606FA05F1491E214073
:101C900099409E40761E16403143F0BC01F06FBC67
:101CA0000CED00E0064900F0070208684FF6FF035C
:101CB000184040EA0220034A1043086070470000C1
:101CC0000CED00E00000FA052DE9F0470F46050095
:101CD00061D0434E306800F00700B84209D2306846
:101CE00020F0070038433060306800F00700B84249
:101CF00051D128683B4C810712D5400703D5606855
:101D000040F4E06060602878000703D5606840F424
:101D1000605060606068A96820F0F000084360606F
:101D20002878C00728D06868012810D021680228C8
:101D300010D0890700292EDA616821F003010143E0
:101D40006160FFF723FF804641F288390DE021688A
:101D50008903EFE78901EDE7FFF718FFA0EB080122
:101D6000494502D90320BDE8F0876068696800F042
:101D70000C00B0EB810FEFD1306800F00700B842E3
:101D80000BD9306820F0070038433060306800F02D
:101D90000700B84201D00120E5E72878400705D5C3
:101DA0006068E96820F4E060084360602878000714
:101DB00006D56068296920F4605040EAC10060607F
:101DC00000F038F86168084AC1F30311515CC8405B
:101DD0000649086006480068FFF7F8FE0020C2E7E1
:101DE0000020024000100240386100080C00002072
:101DF000040000200448054900684968044AC1F30A
:101E00000221515CC84070470C00002000100240C5
:101E1000486100080448054900684968044AC1F35C
:101E2000C221515CC84070470C00002000100240E5
:101E3000486100080E4A51680E4801F00C03042B5B
:101E400011D0082B0FD10C48C1F38343C903C05CE8
:101E50000AD55168084AC1F34041921E515C054AB7
:101E60005043B0FBF1F0704704494843704700000D
:101E70000010024000127A002861000800093D00AD
:101E80002DE9F84F040070D02078C04DC00749D02C
:101E90006868C0F38100012807D06868C0F381003A
:101EA000022809D16868C00306D52868800339D59F
:101EB00060680028E7D035E06068B0F5803F0BD05F
:101EC00010B1B0F5A02F11D0286820F48030286020
:101ED000286820F4802002E0286840F480302860E0
:101EE000606890B1FFF752FE06460AE0286840F4A9
:101EF00080202860F0E700BFFFF748FE801B6428C1
:101F000073D828688003F7D50CE0FFF73FFE06463C
:101F100005E000BFFFF73AFE801B6428F0D8286870
:101F20008003F7D420789A4E80074FF001094FF0D4
:101F3000000839D5686810F00C0F07D06868C0F346
:101F40008100022809D16868C00306D42868800788
:101F500014D52069012808D110E02069B0B1C6F875
:101F60000090FFF713FE074605E00AE1FFF70EFEBB
:101F7000C01B0228C4D828688007F7D52868616983
:101F800020F0F80040EAC10028600DE0C6F80080AB
:101F9000FFF7FCFD074604E0FFF7F8FDC01B022831
:101FA00023D828688007F7D4207800072CD57948F3
:101FB000A169D9B1C0F80090FFF7E8FD074604E039
:101FC000FFF7E4FDC01B02280FD8686A8007F7D529
:101FD00071484FF4FA510068B0FBF1F0009000BF77
:101FE0000098411E0091FAD20EE080E0C0F8008017
:101FF000FFF7CCFD074604E0FFF7C8FDC01B022831
:1020000075D8686A8007F7D42078400760D5E869FA
:102010000027C00008D4E86940F08050E861E86912
:10202000012700F0805000905C480168C90513D476
:102030000168834641F480710160FFF7A7FD824685
:1020400006E000BFFFF7A2FDA0EB0A0064284ED80F
:10205000DBF80000C005F5D5E06801280AD008B11A
:10206000052813D0286A20F001002862286A20F091
:10207000040002E0286A40F001002862E06841F2B2
:10208000883B98B1FFF782FD82460BE0286A40F05A
:1020900004002862EEE700BFFFF778FDA0EB0A011D
:1020A00059455AD8286A8007F6D50CE0FFF76EFD2F
:1020B000824605E0FFF76AFDA0EB0A0159454CD8BE
:1020C000286A8007F6D41FB1E86920F08050E861E3
:1020D000E06988B36968C1F38101022944D002280C
:1020E000C6F8608004D0FFF751FD044638E034E0C4
:1020F000FFF74CFD074604E0FFF748FDC01B022830
:102100002BD828688001F7D4206AB0F5803F05D12C
:102110006868A16820F4003008436860D4E90801C9
:102120000843696821F4741108436860C6F8609038
:10213000FFF72CFD044606E025E000BFFFF726FD73
:10214000001B022809D828688001F7D51BE000BFD2
:10215000FFF71CFD001B022802D90320BDE8F88F01
:1021600028688001F4D40EE00128F7D06868226A5C
:1021700000F48031914204D1616A00F47010884209
:1021800001D00120EAE70020E8E70000001002404B
:1021900000004242800442420C00002000700040D7
:1021A00010B5401EB0F1807F01D3012010BD4FF06B
:1021B000E02460610F21601701F0E1F90020A061C7
:1021C00007202061002010BD7047704770B590F85F
:1021D0003C20012A2CD0012480F83C40022280F8C7
:1021E0003D2003685A689D6822F070060A683243F1
:1021F0005A60104B02689A420ED00F4B9A420BD095
:10220000B2F1804F08D00D4B9A4205D00C4B9A4248
:1022100002D00C4B9A4204D1496825F0800319433F
:10222000916080F83D40002180F83C10084670BD68
:10223000022070BD002C0140003401400004004029
:1022400000080040000C004010B5040003D094F8D2
:102250003D0010B107E0012010BD002084F83C00D3
:10226000204600F01FF8022084F83D00211D206860
:1022700000F0BEFE012084F8460084F83E0084F899
:102280003F0084F8400084F8410084F8420084F85C
:10229000430084F8440084F8450084F83D000020A1
:1022A00010BD000008B500680B49884212D10B48E8
:1022B000C16941F01001C161C069002200F0100045
:1022C000009011463620FFF7CDFCBDE808403620CF
:1022D000FFF7BABC08BD000000100040001002402B
:1022E000704770B50446006801694FF00005C943A6
:1022F000890715D4C168C943890711D4E91E016152
:1023000001202077206880698007204602D0FFF7EF
:10231000E7FF04E000F098F8204600F096F82577F3
:1023200020680169C943490717D4C168C9434907EF
:1023300013D46FF0040101610220207720688069C6
:1023400010F4407F204602D0FFF7CAFF04E000F0FF
:102350007BF8204600F079F8257720680169C943A9
:10236000090716D4C168C943090712D46FF00801E0
:102370000161042020772068C0698007204602D0D0
:10238000FFF7AEFF04E000F05FF8204600F05DF8D4
:10239000257720680169C943C90617D4C168C943B4
:1023A000C90613D46FF0100101610820207720685E
:1023B000C06910F4407F204602D0FFF791FF04E08F
:1023C00000F042F8204600F040F8257720680169C7
:1023D000C943C90708D1C168C943C90704D1891EC7
:1023E0000161204600F032F820680169C9430906FE
:1023F00009D4C168C943090605D46FF080010161A1
:102400002046FFF7E1FE20680169C943490609D467
:10241000C168C943490605D46FF0400101612046F7
:1024200000F015F820680169C94389060BD4C1681A
:10243000C943890607D46FF0200101612046BDE839
:102440007040FFF7C2BE70BD70477047704770475D
:10245000704710B504460068406994F84110C0F315
:10246000C010212911D180B12068143050E8001F1C
:1024700021F0800140E80012002AF5D1A06B08B1DC
:10248000FFF720F8204600F003FF2068406994F829
:102490004210C0F38010222911D180B1206814307D
:1024A00050E8001F21F0400140E80012002AF5D159
:1024B000E06B08B1FFF706F8204600F0C2FE0020EE
:1024C00010BD7047F8B5016804460868CA684B69D2
:1024D00010F00F0F4FF0000559D003F0010602F481
:1024E0009077374365D0C10705D0D10503D5616C1E
:1024F00041F001016164410705D5D90703D0616C42
:1025000041F002016164810705D5D90703D0616CF0
:1025100041F004016164010707D502F02001314355
:1025200003D0616C41F008016164616C00293AD00C
:10253000800604D5900602D5204600F0B7FE20683C
:102540004069616CC0F38010090700D460B3204675
:1025500000F077FE20684069400621D520681430DD
:1025600050E8001F21F0400140E80012002AF5D198
:10257000E06BA8B16D494163E06BFEF7C7FF00282F
:1025800011D0E06B416B01B0BDE8F0400847830615
:102590000FD593060DD52046BDE8F84000F086BE65
:1025A0002046FFF78EFFF8BD2046FFF78AFF6564DF
:1025B000F8BD266B2023012E7CD1C6067AD5D6061F
:1025C00078D508684868009048694FF002064006D0
:1025D00040D5E16B086840680004000CE8D0A28D8B
:1025E0008242E5D9E085886920282DD020680C300A
:1025F00050E8001F21F4807140E80012002AF5D154
:102600002068143050E8001F21F0010140E800125A
:10261000002AF5D12068143050E8001F21F0400155
:1026200040E80012002AF5D184F842302563206882
:102630000C3050E8001F21F0100140E80012002A81
:10264000F5D1E06BFEF73EFF6663A08DE18D401A89
:1026500081B22AE0A08DE18D401A81B2E08D002880
:10266000A6D00029A4D022680C3252E8000F20F432
:10267000907042E80007002FF5D12068143050E830
:10268000002F22F0010240E80027002FF5D184F846
:102690004230256320680C3050E8002F22F01002F1
:1026A00040E80023002BF5D166632046FFF7D0FEFB
:1026B000F8BDFFE705062BD5150629D594F841008E
:1026C0002128F5D1A068B0F5805F01D12069B0B1B3
:1026D000206A411C2162216800784860E08C401E1D
:1026E0000004000CE084E3D12068C16821F080017F
:1026F000C1602068C16841F04001C160D8E7206A2C
:102700000088C0F308004860206A801C2062E5E76A
:102710004006CDD55006CBD5CA68204622F04002EF
:10272000CA6084F8413000F0ACF9C1E745310008D7
:1027300070B5040004D094F84100002510B106E003
:10274000012070BD84F84050204600F023F824207A
:1027500084F841002068C16821F40051C16020461E
:1027600000F006FE2068016921F4904101612068B3
:10277000416921F02A0141612068C16841F400519A
:10278000C1606564202084F8410084F842006563DC
:10279000002070BDF0B585B000240094019402942F
:1027A0000394054602687D497D48DFF8ECE10E158B
:1027B0000223C7144FF0030C724537D1CA6942F4A3
:1027C0000022CA61CA6902F4002204928A6942F0B6
:1027D00010028A61896901F01001CDE903C1CDE9D8
:1027E000006369460646FFF7D5F8CDE900746946EF
:1027F00030460294FFF7CEF86B4E6A48C6E90004F3
:102800008020C6E9024034617461B4613046F461ED
:10281000FFF738F808B1FEF753FEEE6300221146C9
:1028200034207562FFF71EFA342031E0DFF87CE1D6
:102830000425724530D1CA6942F48012CA61CA695E
:1028400002F4801204928A6942F010028A618A6955
:1028500002F0100204928A6942F020028A618969BA
:10286000CDF80CC001F020010491A902CDE90013BC
:102870006946FFF78FF8CDE9005469464C48029449
:10288000FFF788F8002211463520FFF7EBF93520D5
:10289000FFF7DAF905B0F0BDDFF818E146487245F8
:1028A00026D18A6942F480428A618A6902F48042B0
:1028B00004928A6942F004028A618969CDF80CC0E9
:1028C00001F0040104914115CDE900136946054664
:1028D000FFF760F8CDE90064694628460294FFF7E7
:1028E00059F8002211462520FFF7BCF92520CFE733
:1028F000DFF8C8E0724525D1CA6942F40032CA61E6
:10290000CA6902F4003204928A6942F004028A61C0
:10291000896901F00401CDE903C1CDE9005369469D
:102920000546FFF737F80820CDE900046946284638
:102930000294FFF72FF8002211462620FFF792F9A4
:102940002620A5E71E488242A4D1C86940F4802011
:10295000C861C86900F480200490886940F00800CC
:1029600088618869174D00F00800CDE903C0CDE902
:10297000006369462846FFF70DF8CDE90074694603
:1029800028460294FFF706F8002211462720FFF799
:1029900069F927207CE70000004C0040001002404D
:1029A0000010014030040240CC01002000500040E3
:1029B000001401400038014000080140004400407C
:1029C00000480040000C014090F84230202B01D01C
:1029D0000220704721B11AB10023036300F024BD27
:1029E00001207047704770472DE9F843044690F87E
:1029F00041001F4616460D46202802D00220BDE8A1
:102A0000F8837DB176B100206064212084F8410014
:102A1000FFF7BCF8A6848046E684A068B0F5805F26
:102A200002D003E00120EAE7206910B12E4600251C
:102A30000EE000260CE08021204600F03DFDA0B90C
:102A4000AEB116F8010B21684860E08C401EE084AE
:102A5000E08C43464FF0000200970028EBD14FF086
:102A60004001204600F028FD30B10320C7E735F8CB
:102A7000020BC0F30800E6E7202084F841000020A4
:102A8000BDE77047FEE70000094808B5416941F01D
:102A9000020141614069002200F0020000901146ED
:102AA0003A20FFF7DFF8BDE808403A20FFF7CCB83E
:102AB00000100240114808B5816941F02001816190
:102AC000816901F020010091816941F00401816177
:102AD000816901F004010091816941F0080181617F
:102AE000816901F008010091816941F01001816163
:102AF000806900F01000009008BD00000010024046
:102B00001CB500240E4800940C490194C0E900143F
:102B10004FF6FF71C0E902418461FFF795FB08B1F0
:102B2000FEF7CEFC0094694605480194FFF74EFB82
:102B3000002801D0FEF7C4FC1CBD000000100040BE
:102B40001C0000200C4810B50A4901604FF4E13127
:102B50004160002181600C22C160C0E904128161E2
:102B6000C161FFF7E5FD002803D0BDE81040FEF786
:102B7000A7BC10BD004C0040640000200C4810B5FC
:102B80000A4901604FF4E1314160002181600C226B
:102B9000C160C0E904128161C161FFF7C9FD00286D
:102BA00003D0BDE81040FEF78BBC10BD00500040C4
:102BB000AC0000200C4810B50A4901604FF4E13127
:102BC0004160002181600C22C160C0E90412816172
:102BD000C161FFF7ADFD002803D0BDE81040FEF74E
:102BE0006FBC10BD00380140F40000200C4810B547
:102BF0000A4901604FF4E1314160002181600C22FB
:102C0000C160C0E904128161C161FFF791FD002834
:102C100003D0BDE81040FEF753BC10BD0044004097
:102C20003C0100200C4810B50A4901604FF41651D0
:102C30004160002181600C22C160C0E90412816101
:102C4000C161FFF775FD002803D0BDE81040FEF715
:102C500037BC10BD0048004084010020FEE7FEE7BD
:102C600070B51B4C227CE168A068FEF794FB194DFF
:102C7000294603F061F8184E314602F01FFF6061EB
:102C80001C34227CE168A068FEF785FB294603F02E
:102C900053F8314602F012FF60611C34227CE16877
:102CA000A068FEF778FB294603F046F8314602F0AB
:102CB00005FF6061543C227CE168A068FEF76BFB75
:102CC000294603F039F8314602F0F8FE606170BD24
:102CD000FC02002000003443DA0F494030B51049AF
:102CE0000E484FF07E54086000204860C1E902049D
:102CF0000C4A0D4BC1E904321C310C4DC1E90050A6
:102D0000C1E90204C1E904321C31094DC1E9005096
:102D1000C1E90204C1E9043230BD00003333B33EDF
:102D20006402002000002041000020C1CDCC4C3DB9
:102D3000CDCCCC3D704770472DE9F04F85B00C46A7
:102D4000DDE90EBA06461F46154614216846DDF831
:102D50004490DDF84C80FDF717FBC7EBC702552701
:102D60008DF800708DF80170112702F5FA728DF858
:102D700002708DF808208DF80360120ACAEBCA03AE
:102D800004268DF809208DF8046003F5FA738DF898
:102D90000540240A1A0A8DF806408DF807508DF870
:102DA0000C20109AC9EBC9008DF80D2000F5FA70BF
:102DB0008DF80E00000A8DF80F00C8EBC8011298BC
:102DC0008DF8100001F5FA718DF81110080A8DF8D0
:102DD0000AB08DF80B308DF812004FF6FF731322F6
:102DE00069460348FFF700FE05B0BDE8F08F00001C
:102DF000840100203EB500240294009401945524DF
:102E00008DF800408DF8014008248DF802408DF8BF
:102E1000030001208DF804008DF80510080AC3EBAB
:102E2000C3038DF8060003F5FA738DF80830180A0D
:102E30008DF807208DF809004FF6FF730A226946C6
:102E40000148FFF7D1FD3EBD840100202DE9FE4F72
:102E5000384801F0E7F80746374801F0E3F806463E
:102E6000002001F0DFF80446344801F0DBF80146A9
:102E7000334800250097CDE90150334622463148BA
:102E800000F072F8304801F0CDF8304E82463046FE
:102E900001F0C8F82E4C8146204601F0C3F82D4FB2
:102EA0008046384601F0BEF82B4ACDF800A0014616
:102EB000CDE9015223484B4642461C3000F054F8FD
:102EC000002001F0AFF88146304601F0ABF88046B3
:102ED000204601F0A7F80546384601F0A3F81F4E3A
:102EE0000122CDF800900146CDE901261548434660
:102EF0002A46383000F038F8194801F093F8804637
:102F0000184801F08FF80546204601F08BF804467A
:102F1000384601F087F80222CDF800800146CDE95D
:102F2000012608482B4622461C3800F01DF8BDE853
:102F3000FE8F00000000FA420000544300000C43E2
:102F40009A99193FFC0200200000FAC200001143C8
:102F50000000F0C20000F0429A99993ECDCCCC3DE1
:102F60000000BE4200003E4370B50DF1100C9CE81D
:102F70007000026041608360C4600574866170BD4A
:102F8000FEF70ABE30B58FB028216846FDF7FCF980
:102F900014210AA8FDF7F8F901210804CDE9001071
:102FA0000024029402250491CDE907504FF4E0106B
:102FB00009906846FEF764FF08B172B6FEE70F207D
:102FC000CDE90A054FF48060CDE90C4002210AA842
:102FD0000E94FEF779FE002801D072B6FEE70FB01E
:102FE00030BD70470148FFF77CB900001C0000208D
:102FF000F0B502681C4B1D4D1D4E1E4F1E4C4FF070
:10300000804C984209D0A04207D0604505D0A84224
:1030100003D0B04201D0B84204D122F0700E4A6809
:1030200042EA0E02984209D0A04207D0604505D07E
:10303000A84203D0B04201D0B84203D122F4407577
:10304000CA682A434D6922F080022A4302608A68D6
:10305000C2620A688262984201D0A04201D1096925
:10306000016301214161F0BD002C014000040040DA
:1030700000080040000C00400034014038B52948E9
:1030800000680168C1F30011F1B3016800254068D0
:1030900000902448FFF7DDF9234800684068234C7E
:1030A0002349C0F1140020700878FF2829D100209E
:1030B00002228B5C521C1844C0B2072AF9DBCA7981
:1030C00082421ED11A484A78143002708A784270BF
:1030D000CA7882700A7902724A79427289790174D7
:1030E0008178427841EA02214160417A027A41EADC
:1030F0000221C1604FF6FF7308220D490D48FFF70A
:1031000073FC21780A4800E002E0FDF73DF92570E4
:10311000142207490348FFF757FCBDE8384001482F
:10312000FFF7D0B964000020CC010020100000207F
:10313000B8020020AC0000200148FFF7C3B900002E
:10314000AC00002010B5406A0021C185C184FFF7A2
:10315000B8F910BD70B5446A2068406994F8411010
:10316000C0F3C0100025212904D118B1E584204600
:1031700000F08EF82068406994F84210C0F3801087
:10318000222904D118B1E585204600F05AF8606C78
:1031900040F0100060642046FFF793F970BD10B551
:1031A0000146406A096809684FF0000289062ED47A
:1031B000C28501680C3151E8003F23F4807341E877
:1031C0000034002CF5D10168143151E8003F23F0A0
:1031D000010341E80034002CF5D10168143151E8B5
:1031E000003F23F0400341E80034002CF5D12021BA
:1031F00080F84210016B012909D101680C3151E8B6
:10320000003F23F0100341E80034002CF5D1426365
:10321000016B012902D0FFF7E5FB10BD818DFFF79F
:1032200017F910BD10B5406A01214163016B0129F6
:1032300002D0FFF7D8FB10BD818D4908FFF708F9D0
:1032400010BD01680C3151E8002F22F4907241E862
:103250000023002BF5D10168143151E8002F22F032
:10326000010241E80023002BF5D1016B012909D1AE
:1032700001680C3151E8002F22F0100241E80023D0
:10328000002BF5D1202180F8421000210163704706
:1032900001680C3151E8002F22F0C00241E8002300
:1032A000002BF5D1202180F84110704708B590F827
:1032B0004210222901D0022008BD82684FF48053B9
:1032C0009A4201D1016921B1816A9A421BD04AB167
:1032D0000AE00268816A5268C2F308020A80816AC1
:1032E000891C08E0026972B10268526802F07F022C
:1032F0000A70816A491C8162C18D491E0904090C4A
:10330000C18503D01BE002685268F1E70168CA6812
:1033100022F02002CA600168CA6822F48072CA6082
:1033200001684A6922F001024A61202180F84210B6
:1033300000214163026B012A03D0FFF753FB0020F9
:1033400008BD016301680C3151E8002F22F0100222
:1033500041E80023002BF5D101680A68D20602D5A6
:103360000A6849680091818DFFF772F8E7E700006D
:1033700070B5044600680169E26821F440511143C8
:1033800001612169A0680843616908432168CA682E
:1033900041F20C639A430243CA6020684169A26902
:1033A00021F44071114341611E492068884202D1D5
:1033B000FEF730FD01E0FEF71DFD00EBC00101EB63
:1033C0000012606864218000B2FBF0F3B3FBF1F3FC
:1033D0006FF018067343B2FBF0F5B2FBF0F605EBA5
:1033E0008305322303EB0515B5FBF1F5B6FBF1F6CA
:1033F00005F0F00505EB0615B2FBF0F6B2FBF0F0B8
:10340000B0FBF1F06FF01802504306EB800003EBC5
:103410000010B0FBF1F0216800F00F002844886034
:1034200070BD00000038014038B5816204468285D5
:10343000002013466064222284F84220E56B1B4A78
:10344000AA62E56B1A4AEA62E56B1A4A2A63E26BE2
:1034500050630A462168E06B091DFEF751FA2068A7
:10346000016840680090206948B120680C3050E83D
:10347000001F41F4807140E80012002AF5D1206855
:10348000143050E8001F41F0010140E80012002A0A
:10349000F5D12068143050E8001F41F0400140E8A9
:1034A0000012002AF5D1002038BD00009F3100082D
:1034B00025320008553100082DE9F041984617469D
:1034C0000E460446069D27E0681C25D02DB1FEF768
:1034D0005DFBA0EB0800A8421ED920680C3050E824
:1034E000001F21F4D07140E80012002AF5D12068B5
:1034F000143050E8001F21F0010140E80012002ABA
:10350000F5D1202084F8410084F84200002084F89E
:1035100040000320BDE8F0812068006836EA000022
:1035200004D00020B842CFD00020F3E70120F9E713
:103530000148FEF7C7BF0000F40000200148FEF775
:10354000C1BF00003C0100200148FEF7BBBF0000E6
:1035500084010020FEE7490050EAC12018BF042082
:103560004A0D18BF40F0010040F2FF72B2EB515F0C
:1035700008BF40F00200012808BF05207047090776
:10358000090E002804DB00F1E02080F800147047E9
:1035900000F00F0000F1E02080F8141D70470000DB
:1035A0002DE9F74F144694B00021C4E90211159992
:1035B000079121F00045C9498D4206DC1599C4E9FF
:1035C000000117B00020BDE8F08FC549DFF814A353
:1035D000A9423CDD0799C44E0029C44FC44A15993D
:1035E000534619DD02F0E6F8554506D0C14AC24BF4
:1035F00002F0E0F8C4E900010AE04FF0D352BE4BFC
:1036000002F0D8F832463B4602F0D4F8C4E9000193
:1036100017B00120BDE8F08F01F0FCFB554506D046
:10362000B44AB54B01F0F6FBC4E900010AE04FF0E3
:10363000D352B14B01F0EEFB32463B4601F0EAFBC0
:10364000C4E9000117B04FF0FF30BDE8F08FAB497F
:10365000A942159978DB21F0004183468846A84AA3
:10366000A84B01F081FE0022A74B01F0D3FB01F033
:10367000E5FD099001F011FE06460F469C4A5346AF
:1036800001F072FE43465A4601F0A2FF80468A4688
:10369000984A994B3046394601F066FE2A0D0125BD
:1036A0000B924246534601F093FF032DC4E90001FB
:1036B00039D00B98C1F30A51401A05EB4511113965
:1036C000814230DA9148C346784400EB0510CDF8CA
:1036D0000CA00C90D0E900233046394601F044FE9E
:1036E00002460B46049106905846039902F062F890
:1036F00080468A4602460B465846039902F05AF81D
:10370000049B069A02F056F883460C9803913946BA
:10371000D0E90223304601F027FE5A46039B02F00F
:1037200049F86D1CBDE707980028A2BF099817B09B
:10373000BDE8F08F616881F000416160099817B0C1
:103740004042BDE8F08FFFE784461598C1F31301AE
:10375000C0F30A50A0F2F5304FEA601800F01F06DF
:10376000C6F12000139000200690079041F4801EBF
:1037700005206D4676B1664A08EB00017A4452F89E
:10378000213002EB8101B3404A68139922FA01F11A
:10379000194305E05F4908EB0002794451F8221013
:1037A000A1FB0E27A1FB0C131A449A4234BF01233C
:1037B000002303EB070A05EB8003D3E901B70F44AD
:1037C0008F4234BF0121002193448B4411B19345B2
:1037D00002D903E0934501D2012100E00021C3E9B1
:1037E00001B7514445F82010011EA0F10100C1DCD1
:1037F0000298059F00F10050800F12900298DDE9B9
:103800000356800001F049FD834628460D9101F0E2
:103810005BFD6FF01D0202F040FCCDE90E01304669
:1038200001F052FD6FF03D0202F037FC80468A46FF
:10383000384601F049FD6FF05D0202F02EFC0746AC
:1038400042465346119101F0E5FADDE90E2301F0FD
:10385000E1FA5A460D9B01F0DDFA00250E465A4664
:1038600028460D9B01F0A6FFDDE90E2301F0A2FF23
:103870004246534601F09EFF3A46119B01F0A8FED6
:10388000DFF898A0244A534601F06EFD07468846AB
:10389000234A244B3146284601F066FD3A4643460A
:1038A00001F0B8FA074688464FF0A8425346314621
:1038B000284601F059FD3A46434601F0ABFA159A05
:1038C00012F0004F04D0129A81F00041524212923D
:1038D000C4E90001129817B0BDE8F08FFB21E93F61
:1038E0007CD90240FB21F93F7370032E8A19A33B58
:1038F000000040543163621A61B4D03DFB2139416C
:1039000083C8C96D305FE43F0000E03F142C000025
:10391000902B0000722B0000182D4454FB21F93D20
:103920003326A611460B113C2DE9FF4D21F000482E
:1039300007460C46B8F1795F08DA01F07FFC0028F1
:1039400001BF0020324904B0BDE8F08D3A4623465D
:103950001046194601F008FD054602462D480E4660
:103960000B460621784400F05DF82A46334601F004
:10397000FBFCDDE9022382468B463846214601F0F6
:10398000F3FC04460F4652465B462846314601F09A
:10399000EBFC22463B4601F00DFF07468A464FF0FE
:1039A000FF322846314602F078FB1B4A90450ADA7E
:1039B0003A46534601F0FEFE04B00022BDE8F04D49
:1039C000134B01F005BE154A4245A8BFA8F50015E6
:1039D0004FF00004B8BF124D22462B4601F0EAFE1C
:1039E0000646884622462B460020094901F0E2FEA1
:1039F00004460D463A4653463046414601F0DAFE4B
:103A000004B022462B46BDE8F04D01F0E1BD0000B8
:103A10000000F03F402900003333D33F0000E93F6E
:103A20000000D23F2DE9F0414F1E00EBC7010446D4
:103A3000D1E9000115461E4637F006020DD02A4690
:103A4000334601F091FC7F1E04EBC703D3E900234A
:103A500001F0E0F937F00602F1D1022F25D0042F52
:103A600013D0062F18BFBDE8F0812A46334601F077
:103A70007BFCD4E90A2301F0CDF92A46334601F054
:103A800073FCD4E9082301F0C5F92A46334601F056
:103A90006BFCD4E9062301F0BDF92A46334601F058
:103AA00063FCD4E9042301F0B5F92A46334601F05A
:103AB0005BFCD4E9022301F0ADF92A46334601F05C
:103AC00053FCD4E90023BDE8F04101F0A3B90000A4
:103AD0002DE9FF4D054621F0004084B00C46B0F1C1
:103AE000795F0BDA2846FFF736FD042808BF00F09F
:103AF00071F8284608B02146BDE8F08D2A460B46ED
:103B0000104601F031FC06460F462A46234601F0D6
:103B10002BFC804626488A4632463B46052178449F
:103B2000FFF780FF83461098029160B3214A224B31
:103B30004046514601F018FCCDE900015A46404686
:103B40005146029B01F010FC82468846DDE90601E1
:103B50004FF0FF3202F0A1FA5246434601F02AFE2E
:103B600032463B4601F000FCDDE9062301F022FE6F
:103B7000DDE9002301F01EFE08B02A462346BDE819
:103B8000F04D01F025BD0B465A463046394601F04E
:103B9000EBFB084A084B01F03DF94246534601F061
:103BA000E3FB08B02A462346BDE8F04D01F032B9E8
:103BB00086280000495555555555C5BF012202F0CC
:103BC0006CBA01F027B9002213461046114601F0E5
:103BD000DDB90000024A0020110702F05EBA0000C1
:103BE00001FDFFFF704700002DE9F84F04460D4628
:103BF00021F0004000917349814211DC72498842F2
:103C000001DC06D12CB120462946BDE8F84FFFF76C
:103C1000D5BF6E48002DCCBF6D496E49BDE8F88F09
:103C20006D49814211DD6D498142D8BF4FF0FF36A9
:103C30006DDD20462946FFF78EFC042808BFFFF7FC
:103C4000C9FF20462946BDE8F88F6549654F25F034
:103C50000045814233DD6449814219DD0026324648
:103C60004FF080432046294601F0D4F880468A462A
:103C700001222046294602F010FA00223B4601F0BC
:103C800099FD4246534601F081F904460D463EE057
:103C900001260022BA463B462046294601F0BAF8E2
:103CA00080460F46002253462046294601F082FDF9
:103CB00042463B4601F06AF904460D4627E04B496F
:103CC00081421BDDDFF828A1022600225346204650
:103CD000294601F049FB00223B4601F09BF8804653
:103CE0000F46002253462046294601F063FD424616
:103CF0003B4601F04BF904460D4608E003262246F8
:103D00002B4600203B4901F041F904460D4622466E
:103D10002B461046194601F027FB8B468246024689
:103D20000B4601F021FB07460246334888460B4606
:103D300006217844FFF776FE52465B4601F014FBFD
:103D400082462E488B463A46434605217844FFF783
:103D500069FE3A46434601F007FB02460B46002E39
:103D6000504659460CDA01F055F822462B4601F030
:103D7000FBFA01B022462B46BDE8F04F01F028BC0B
:103D800001F048F822462B4601F0EEFA1C4A7A442C
:103D900002EBC603D3E9002301F00CFD22462B46BB
:103DA00001F008FD174A7A4402EBC603D3E9002369
:103DB00001F00EFC009A002AB8BF81F00041BDE876
:103DC000F88F0000000010440000F07F182D4454CC
:103DD000FB21F93FFB21F9BF0000DC3F0000203E42
:103DE0000000F33F0000F03F0000E63F008003408A
:103DF0000000F83F0000F0BF422500000025000051
:103E00009E240000662400002DE9F04D9446CCF17C
:103E1000000423F000464CEA0404524F46EAD474EE
:103E20009A46884621F00042BC4206D8454240EA04
:103E3000050442EAD474BC4204D9BDE8F04D6246A0
:103E4000FFF7BFBEAAF14055A5F17F6555EA0C0406
:103E50000BD0022404EAAA74434DDFF810E144EACF
:103E6000D87452EA000B04D00CE0BDE8F04DFFF727
:103E7000BBBE002C14BF012CBDE8F08D022C30D04D
:103E8000032C32D056EA0C0B0AD0BE4220D1BA42E3
:103E900009D126F0804622F080423346114617E0D1
:103EA00000291ADB25E0DFF8C8B0FB44002C04BF72
:103EB000DBE90001BDE8F08D012C02BFDBE9000168
:103EC00081F00041BDE8F08D022C0AD0032C0CD00B
:103ED000BA4212D1B8F1000F0BDA23482549BDE8E8
:103EE000F08D28462449BDE8F08D28467146BDE88E
:103EF000F08D1D482149BDE8F08D921B12153C2A1A
:103F0000C4BF19481D490EDCBAF1000FBEBF12F143
:103F10003C0F0020014606DB624601F037F821F035
:103F20000041FFF761FE002C08BFBDE8F08D012CB9
:103F300004BF81F00041BDE8F08D114A114B022C05
:103F400007D001F037FC2A46BDE8F04D0A4B01F0DE
:103F500031BC01F02FFC2A46BDE8F04D064B01F0C4
:103F600037BB00000000F07F182D4454FB2109C02E
:103F70002A240000FB21F9BFFB210940FB21F93F66
:103F8000075C143326A6A13C00B5244B21F0004267
:103F900087B09A42DCBF0022134629DD204B9A42AB
:103FA00008D140B94FF00100FCF71DFAFFF70BFEF6
:103FB00007B000BD03DBFFF701FE07B000BD02AA9A
:103FC000FFF7EEFA10F0030104BF0DF1080C9CE8B6
:103FD0000F000DD0012001290ED0022914D00DF1BF
:103FE000080C00909CE80F00FFF772FD07B000BDC1
:103FF000FFF79AFC07B000BD0DF1080C00909CE89B
:104000000F00FFF765FD05E00DF1080C9CE80F00BF
:10401000FFF78AFC07B081F0004100BDFB21E93FBA
:104020000000F07F10B5044901F086FEBDE81040A5
:10403000024901F043BD0000DA0F4940000034435B
:1040400004490A685206FCD5024AC1B2121D116029
:1040500070470000004C004070B5C4B04022504989
:1040600011A8FCF75FF94F4CE06801F08DFCFFF7F9
:104070008BFF00F09DFE1190E06801F085FC00F0E0
:10408000AFFC00F095FE80F000401290E06801F077
:104090007BFC00F0A5FC00F08BFE1590E06801F0C1
:1040A00073FCFFF771FF00F083FE3D49169040223C
:1040B000403121A8FCF736F91C34E06801F064FCBB
:1040C000FFF762FF00F074FE2190E06801F05CFCF5
:1040D00000F086FC00F06CFE80F000402290E0686A
:1040E00001F052FC00F07CFC00F062FE2590E068DC
:1040F00001F04AFCFFF748FF00F05AFE28492690DD
:104100004022803131A8FCF70DF91C34E06801F041
:104110003BFCFFF739FF00F04BFE3190E06801F007
:1041200033FC00F05DFC00F043FE80F00040329074
:10413000E06801F029FC00F053FC00F039FE3590F6
:10414000E06801F021FCFFF71FFF00F031FE369020
:1041500021A911A800F092F800216B462834002014
:1041600004EB011203EB011552F8206045F82060C2
:10417000401CC0B20428F7D3491CC9B20429EED3AD
:1041800031A9184600F07AF80648E1685430016019
:10419000E1694160A0F17001C968816044B070BDFF
:1041A00050610008FC02002086B0FDF7FDFCFEF720
:1041B000E9FEFEF77FFCFEF767FCFEF7A1FCFEF7C9
:1041C000C1FCFEF7DBFCFEF7F5FCFEF70FFDFEF78A
:1041D00029FD00F0C7FDFEF739FEFEF77FFD4FF425
:1041E000FA673846FDF7C4FBFEF73AFD1F48406901
:1041F00001F026FD06461E48406901F021FD0546F6
:104200001C48406901F01CFD04461B48406901F050
:1042100017FD034603200596CDE9035001200090C9
:104220000221CDE90141002239460320FEF784FD39
:1042300040F63400FDF79CFBBC10322305222146DA
:104240000320FEF7D7FD4FF416752846FDF790FBC7
:104250007123042221460320FEF7CCFD2846FDF7FA
:1042600087FB00BF00F08AF8FCE700003403002061
:1042700018030020FC020020E00200202DE9F05F7E
:10428000002689468346B246124800240BEB0618E6
:1042900000EB06175FF0000547F824A009EB0510B6
:1042A00050F8241058F8250001F046FD57F8241066
:1042B00001F096FB6D1CEDB247F82400042DEDD300
:1042C000641CE4B2042CE5D3761CF6B2042EDBD3D6
:1042D000BDE8F09F5C0300202DE9F0410D468168A8
:1042E0000446806901F030FE60606969206801F071
:1042F000EFFD04D8606810F1FF4F09D20DE0296985
:10430000206801F0E5FC03D86068B0F5000F04DB1D
:104310006168206901F064FB2061EF684FF07E5016
:10432000394601F011FE616901F006FDE1680646BB
:10433000606801F009FE394601F0FEFC314601F0EB
:104340004FFB06463146A86801F0F6FC216980461D
:10435000686801F0F1FC61680746286801F0ECFC30
:10436000394601F03DFB414601F03AFB20606068B0
:10437000E06066612068BDE8F08100002DE9F04F43
:10438000FE4889B04168FE4C4FF0030904F11C055A
:1043900004F13806A4F11C084FF0020A4FF0000B9C
:1043A00004F1540700296DD0C16800296AD0F54A8C
:1043B000A2F800B0017802297ED1406801F05CFCCF
:1043C000F1498860ED48C06801F056FCEF4988600B
:1043D000EA48007C01F068FCED498860EA4AED4853
:1043E0009061EA4A9061EC488861EC49E648FFF741
:1043F00073FF0590EA49E548FFF76EFF0090E94931
:10440000E348FFF769FFFFF727FE009820F0004020
:1044100001F0BAFACDE90310059820F0004001F050
:10442000B3FADDE9033200F0F5FC0022DE4B00F0C8
:104430005FFF03D3D148007C28287DD9CF48007C7A
:1044400001F032FCD2498860D8488861D549D0480B
:10445000FFF742FF0690C948007C01F025FCCC49DB
:10446000896901F071FDD24920F00040884203DBE8
:10447000C248007C28286FD9C048007C32286DD9FA
:10448000386875E0FFF7E8FDBE480188491C89B22D
:104490000180082930D9B1F57A7F01D9092101803D
:1044A000C448FFF7BFFDE060C348FFF7BBFDE8600D
:1044B0000020FFF7B7FD00E0A8E0F060FEF7D0FBBA
:1044C000706901F0BDFB0646686901F0B9FB05465D
:1044D000606901F0B5FB0446D8F8140001F0B0FBA8
:1044E0000346012005968DE81104CDE90359002209
:1044F0004FF4967103202AE038684FF0804101F0B4
:1045000023FDBA687968FCF751FF00287ED0FEF7DA
:10451000A7FBD8F8140001F093FB0746706901F07F
:104520008FFB0646686901F08BFB0546606901F068
:1045300087FB0346012200E0F5E1CDF800A00597D6
:10454000CDE90159CDE9036B4FF496710320FEF7D5
:10455000F3FB4FF4C87099E19DE1FFE78748007CC9
:104560002828386801D9954900E0904901F038FAC7
:10457000BA687968FCF71AFF002847D0FEF770FB8D
:104580004746D8F8140001F05BFB0290706901F017
:1045900057FB0190686901F053FB8046606901F0A8
:1045A0004FFB0346DDE90101CDE90290CDE904B1FD
:1045B0004046CDE900A0D04601224FF49671032079
:1045C000FEF7BAFB4FF4C870FDF7D2F9069801F078
:1045D000DBF96A4A127C009202460B4678A0FBF790
:1045E00025FE9623052259000320FEF703FC4FF415
:1045F000C870FDF7BDF96F48FFF714FDE060DFF804
:10460000B8B15846FFF70EFDE86000E088E1704859
:10461000FFF708FDF0606F48FFF704FDF860FEF754
:104620001FFB706901F00CFB0290686901F008FB48
:104630000190606901F004FB8246786901F000FB9B
:104640000346DDE90101CDE90280CDE90491504640
:104650004FF0010ACDE900A000224FF4FA610320D7
:10466000FEF76AFB40F63400FDF782F95148FFF788
:10467000D9FCE0605846FFF7D5FCE8600020FFF762
:10468000D1FCF0605248FFF7CDFCF860FEF7E8FA85
:10469000706901F0D5FA0290686901F0D1FA0190D1
:1046A000606901F0CDFA0090786901F0C9FA03461B
:1046B000DDE90101CDE90491CDE9028000980022F5
:1046C000CDE900A04FF4FA610320FEF735FB40F678
:1046D0003400FDF74DF94048FFF7A4FCE0603C488A
:1046E000FFF7A0FCE8603D48FFF79CFCF06038480D
:1046F000FFF798FCF860FEF7B3FA706901F0A0FAD2
:104700000190686901F09CFA0290606901F098FAE2
:104710000090786901F094FA0346DDE90101CDE9E2
:1047200004900098CDE90281CDE900A000224FF469
:10473000FA610320FEF700FB40F63400FDF718F99C
:10474000322305224FF496710320FEF753FB4FF4FA
:10475000C870FDF70DF92248FFF764FCE0601C48C3
:10476000FFF760FCE8600020FFF75CFCF060184891
:10477000FFF758FCF860FEF773FA33E0CC02002034
:10478000FC02002018000020480200202C0200201B
:1047900010020020000020430000A0419C020020E5
:1047A00080020020640200200000244000007041CC
:1047B000000040400000FA420000FAC20000A040A1
:1047C0004242203D20256620202025640D0A00005D
:1047D0000000B4C20000BE420000DC420000F0C293
:1047E0000000B442706901F02BFA0290686901F090
:1047F00027FA0190606901F023FA0090786901F0CE
:104800001FFA0346DDE90101CDE90491CDE90280FB
:1048100000980022CDE900A04FF4FA610320FEF7D2
:104820008BFA40F63400FDF7A3F85F48FFF7FAFB78
:10483000E0605846FFF7F6FBE8600020FFF7F2FB68
:10484000F0605A48FFF7EEFBF860FEF709FA70696E
:1048500001F0F6F90646686901F0F2F9054660696B
:1048600001F0EEF90446786901F0EAF9CDF800A00C
:104870000596CDE90148CDE90359034600224FF4DE
:10488000FA610320FEF758FA40F6340009B0BDE89B
:10489000F04FFDF76DB80598FFF7C4FBB96801F05C
:1048A0009FF801907868009901F09AF800903868B4
:1048B000069901F095F8DDE90012FCF777FD002874
:1048C0002ED0FEF7CDF9D8F8140001F0B9F907465B
:1048D000706901F0B5F90646686901F0B1F905465D
:1048E000606901F0ADF9CDF800A00597CDE9015957
:1048F000CDE9036B034601224FF496710320FEF7C6
:104900001BFA4FF4C870FDF733F8069801F03CF835
:10491000274A127C009202460B4626A0FBF786FC33
:1049200009B0BDE8F08F0598FFF77CFB2549896841
:1049300001F056F8074623484068009901F050F806
:1049400001463A462048FCF731FD0028E8D0FEF742
:1049500087F9D8F8140001F073F90746706901F07F
:104960006FF90646686901F06BF90546606901F068
:1049700067F9CDF800A00597CDE90159CDE9036BA2
:10498000034601224FF496710320FEF7D5F94FF448
:10499000C870FCF7EDFF0648C268416809B00BA07B
:1049A000BDE8F04FFBF742BC0000FA420000BE42F7
:1049B000CC0200204141203D202566202020256496
:1049C0000D0A000050030020000070415A203D20D5
:1049D000256420202059203D2025640D0A00000078
:1049E00000B5254B21F0004287B09A4203DC00223B
:1049F000134600922BE0214B9A4208D140B94FF068
:104A00000100FBF7F0FCFFF7DEF807B000BD03DBA9
:104A1000FFF7D4F807B000BD02AAFEF7C1FD10F001
:104A200003014FF001000DD0012914D002291AD042
:104A30000DF1080C9CE80F00FEF776FF07B081F03F
:104A4000004100BD0DF1080C00909CE80F00FFF73D
:104A50003FF807B000BD0DF1080C9CE80F00FEF711
:104A600063FF07B000BD0DF1080C00909CE80F003B
:104A7000FFF72EF8E2E70000FB21E93F0000F07F9E
:104A80002DE9F74F86B081460799084601F054F9A1
:104A900004464946084601F04FF9214600F0A0FFC0
:104AA0009849009001F050FA974901F04DFA974962
:104AB00001F004F8044610F1814F05D84FF07E55FF
:104AC000DFF84CB2AC4203DD002009B0BDE8F08F46
:104AD000014601F031F9AA46294601F02AFA00F010
:104AE00053FF0E46054600F017F900F061F907463E
:104AF0002846314600F010F900F05AF980F00046DF
:104B0000204600F041FF04460D46384600F03CFFC9
:104B100022462B46FFF778F900F04AF9294680F043
:104B2000004825460C46304600F02EFF2A46234614
:104B3000FFF76AF900F03CF980F00047484600F0C2
:104B400023FF05460C46079800F01EFF2A46234621
:104B5000FFF75AF900F02CF98146009800F014FF95
:104B600000F0DAF84FF000426A4B00F0FDFB05461A
:104B70000C466449009800F033FF634901F0E4F902
:104B800000F002FF2A46234600F000FA00F010F978
:104B90000446014601F0D0F8514601F0CAF900F090
:104BA000F3FE00F0B9F800F003F90546204600F0E6
:104BB000EBFE06460C46284600F0E6FE324623464B
:104BC000FFF722F900F0F4F804460146484600F0E9
:104BD00007FF01902146484601F0B6F9009088F0A1
:104BE0000040019901F0B0F9824687F00040009939
:104BF00001F0AAF98146DBF80C005C46514601F051
:104C0000A3F90546E068514601F09EF9294601F0F6
:104C100093F8A16901F090F83D4D03901C3DE868C0
:104C2000414601F091F90646E868414601F08CF9E9
:104C3000314601F081F8A96901F07EF8A5F11C0662
:104C40008346F068019901F07FF90290F0680199BC
:104C500001F07AF9029901F06FF8B16901F06CF88E
:104C6000594600F0BDFE039900F0BAFE0490E068DA
:104C7000494601F069F98346E068494601F064F964
:104C8000594601F059F8A16901F056F80390E86817
:104C9000394601F059F98346E868394601F054F97C
:104CA000594601F049F8A96901F046F88346F068D1
:104CB000009901F049F90290F068009901F044F977
:104CC000029901F039F8B16901F036F8594600F05F
:104CD00087FE039900F084FE0146A5F1380208988A
:104CE000D060049800F0F4FF05D20198F060C5F898
:104CF0000C80504603E00098F060EF604846E060AA
:104D00000120E2E63F3B0144C0ECFA437BAA7E442B
:104D1000340300206ABC46402DE9F04106460F46A8
:104D200000F062FC041E0D4618BF0120284320F04D
:104D30000040C0F17F6000F1E040C00F0ED0301C99
:104D400018BF0120384320F00040C0F17F6000F11F
:104D5000E040C00F04BF0120FBF745FB2046294679
:104D6000BDE8F08105480068C16841F01001C160EC
:104D7000142203490148FDF727BE0000640000200B
:104D8000B802002010B500290AD00878002807D002
:104D900005487844FBF7F6FE002801D0002010BD3E
:104DA0000248784410BD0000F2160000EA16000028
:104DB00021F00042A2F16052B2F5801F01F00043E1
:104DC00028BFD2F17F6C0BD95FEA001C43EAC20214
:104DD00042EB507018BF704728BF20F001007047A9
:104DE000B2F5801FBCBF184670474FEA410C1CF556
:104DF000001F02D2084601F066B870B500F05EFBF5
:104E000000000089FFF7F6BF4FF00040A0F58000DA
:104E10007047000010B591EA030F48BF83F00043CC
:104E200000F1D084841A71EB030C05D2121943EB04
:104E30000C03001B61EB0C01DFF824E14FEA115475
:104E4000A4EB135C1EEA430F18BF9EEA445F73D0C5
:104E500023EA0E03DCF1200E21EA045143F480130F
:104E600032D322FA0CFE10EB0E0023FA0CFE41EBBB
:104E70000E01CCF1200E03FA0EFE10EB0E0051F1E4
:104E80000001B1F5801FCCF1200E32D201EB0451AC
:104E900012FA0EF2BDE8104058BF7047401C38BFF0
:104EA0005FEA420218BF7047002814BF20F00100DB
:104EB00041F100014FEA410313F5001F38BF70476D
:104EC000A1F1C04100F048BB012A43EB0302ACF161
:104ED000200CDCF11F0E32BF4FF0000E23FA0CF352
:104EE00010EB030041EB0451B4EB115FD0D0A1EB08
:104EF000045101F5801149085FEA300001EB0451CB
:104F00000ED350F1000038BF12FA0EFE08D1BDE8F2
:104F10001040C9E7401C38BF5FEA4202CAD1C3E76C
:104F2000BDE810404FEA410313F5001F38BF70473A
:104F3000A1F1C04100F010BB9EEA445F08D011EA25
:104F40005E0FBDE8104004BF01F000410020704733
:104F5000BDE8104070B500F0B1FA00BF64FBBE3E82
:104F60000000E0FF02494FF0000001F064B800BF0C
:104F70000000F87F491058BFC1F140415B1058BF95
:104F8000C3F140438B42EFF3008070472DE9C041ED
:104F900030B4DFF8A0C23CEA111418BF3CEA131485
:104FA00000F0EC8081EA03051CEA111444EAD57490
:104FB00018BF1CEA131500F0C780A4EB05044FF0DE
:104FC000004545EAC12145EAC32341EA505143EA7D
:104FD000525304F17F74994204F500344FEAC02023
:104FE0004FEAC22208BF904200F09C804FEA13654E
:104FF0000FF24016765D4FEA134506FB05F7C7F141
:10500000807706FB07F74FEAD737A7FB036876429E
:10501000C8F58038A7FB06CE38BFA8F1010807FB0A
:1050200008E64FF0000EA6FB028CE6FB03CEDCF197
:10503000000CCEF1004E38BFAEF1010EA6FB0C58AD
:105040004FF000074FF00005E6FB0E87A1FB08C6F6
:10505000A0FB07CE16EB0E0645F10005E1FB076548
:1050600015F1E04E7EBFA4F580345FEA46066D413F
:1050700016F1800745F100054FEA17274FEA06664B
:1050800047EA0567A6F1DE46B6F1805F4FEA1525CF
:105090001FD9384624F0010C05EBC471BCF1FE6F3A
:1050A00001EB0C1102D8F0BCBDE8008124425CBFCA
:1050B00001F5801E9EEAC47F02D4F0BCBDE80081E9
:1050C000244238D4F0BCA1F1C041BDE8004100F059
:1050D00043BA4FEAD22242EA43524FEAD323A7FB14
:1050E00002864FEAD02040EA415007FB03661EEAE1
:1050F0000E0F4FEAD12105FB026658BFA6EB005602
:10510000B6EB00564FEA520E4EEAC37E18EB0E0E77
:1051100056EB530EBDD518EB02085E417F1C55F1CE
:105120000005B6E74FF480154FF000074FF000067A
:105130004FF00008ADE7F0BC4FF0000001F1C041B6
:1051400001F00041BDE8008111EA0C1F0CEA1315C3
:1051500000D00CE013EA0C1F00F025804FF0000097
:10516000F0BC81EA030101F00041BDE80081F0BC20
:10517000BDE8004181EA030100F0EEB9F0BCBDE8F2
:10518000004170B500F09AF9097EFC3E00F007B8C6
:1051900081EA03014FF0000001F00041704781EA0D
:1051A000030100F0D9B9F0BCBDE800414FF00000A8
:1051B00021497047FFFDFBF9F7F5F4F2F0EEEDEB56
:1051C000E9E8E6E4E3E1E0DEDDDBDAD8D7D5D4D305
:1051D000D1D0CFCDCCCBCAC8C7C6C5C4C2C1C0BF51
:1051E000BEBDBCBBBAB9B8B7B6B5B4B3B2B1B0AF57
:1051F000AEADACABAAA9A8A8A7A6A5A4A3A3A2A13B
:10520000A09F9F9E9D9C9C9B9A99999897979695F5
:1052100095949393929191908F8F8E8E8D8C8C8B91
:105220008B8A898988888787868585848483838219
:10523000828181800000FF070000F87F4FEA410370
:105240004FEA5353A3F58063D3F11E03C8BFD3F1D4
:10525000210C0CDD4FF0004242EAC12242EA5052DA
:1052600032FA03FC8CEAE17CACEBE1707047102B66
:10527000C4BF0020704703F5787CBCF1FF3F04D029
:105280006FF0004282EA2100704770B500F016F915
:105290004992248000207047F2E710F0004248BF96
:1052A0004042B0FA80F310FA03F10AD0C3F11D03B3
:1052B00003F580634FEA415002EB035202EBD12128
:1052C00070474FF000007047B0FA80F310FA03F116
:1052D0000AD0C3F11D0303F580634FEA41504FEA42
:1052E000035202EBD12170474FF0000070470000DD
:1052F00051EA030C17D41CF5801F58BFBCF5801F62
:1053000000F10680994218BF704708BF904270476D
:1053100007D711F5801F58BF13F5801F19D4994284
:105320007047894270471CF5801F08D5BCF5801F67
:10533000F7D58B4218BF704708BF824270474FF4C1
:10534000001C1CEB410F38BF1CEB430F01D28B42FA
:10535000704770B500F0B2F8922449004FF0005148
:105360004FF08053FFF706BEDFF848C170B51CEA66
:10537000111E1EBF1CEA13159EEA0C0F95EA0C0FB6
:1053800000F06F8081EA030423EA4C134EEAD47ED6
:1053900021EA4C1141F4801143F48013AE44A1FB87
:1053A000024CA0FB0365AEF17F7E361955EB0C0570
:1053B000A1FB034C4CF10003A0FB021C16EB0C06F6
:1053C000654153F10003094218BF46F0010613F48A
:1053D000007F0BD14FEA03314FEA0530340341EA35
:1053E000155140EA16506FF003020AE04FEAC3215C
:1053F0004FEAC520F40241EA555140EA56506FF099
:10540000020202EB2E4201EB025585EACE710AD070
:105410005FEA440C18BF24F0004450F1000041F151
:10542000000120EAD47040F2FE7C624500D270BDDB
:10543000A84214BF4FF080444FF04044002E08BFF4
:105440000024BEF1806FA8BFA1F1C041BDE870404B
:1054500080F282804FF0000001F1C04101F0004174
:1054600070479EEA0C0F0CEA131518BF95EA0C0F53
:1054700006D04FF0000081EA030E0EF0004170BD2F
:1054800000F01CF88900013E00F007B800F009B8F0
:105490004FEA430C5FEA5C5C08D081EA030100F04C
:1054A0005BB84FEA410C5FEA5C5CF6D14FF000005C
:1054B000014970470000FF070000F87F0EF1020E5F
:1054C0002EF0030E5EF8046B364205D4012A43EB3E
:1054D000030515F5001F12D8012841EB010C1CF53E
:1054E000001F0CD80ED14FEAD17C15F5001F0CEB34
:1054F0004C0C0CF1020C08BF4CEBD37C04E04FF0D9
:10550000080C01E04FEAD37C0CEB4C0526FA05F6BB
:1055100006F00706B6F1040C06D20EEB860CBDE8C9
:1055200070404CF0010C6047DFE80CF0090B020200
:105530004FF000414FF00000A1F5002170BD194669
:105540001046012851EB010418BFD4F5001484BFA4
:10555000002001F0004170BD0808A0F500114FEADD
:105560003101704753EA010C17D41CF5801F58BF56
:10557000BCF5801F00F106808B4218BF704708BF42
:105580008242704707D713F5801F58BF11F5801F5F
:1055900019D48B4270479B4270471CF5801F08D579
:1055A000BCF5801FF7D5994218BF704708BF9042DD
:1055B00070474FF4001C1CEB430F38BF1CEB410F2E
:1055C00001D2994270470FB40CBC03BCFFF7C1BEB7
:1055D00091EA030F10B581F000413FF523AC83F051
:1055E000004300F0EFB800002DE9F04101F5801C08
:1055F000BCF5001FC0F2C3804FEA115C21EA0C51D8
:105600000CF1FD0C41F480115FEA5C0C0CF5C07CE0
:1056100001D3400049413DA4890241EA90518702EB
:105620008E0E0A0CA45D04FB04F602FB06F6C6F11E
:105630004046A4FB0662F60D46EA422606FB06F447
:10564000A4FB01235242C3F1404338BF5B1EA6FBBB
:1056500002420024E6FB0324D20B42EA4446A6FBA6
:105660000623A1FB02E2A3FB07E4A4184FF000020B
:1056700052F10002E3FB01426442C2F1404E38BFE6
:10568000AEF1010EA6FB04234FF00002E6FB0E3242
:10569000A2FB03464FF00004B61954F10004E2FBEC
:1056A0000264A1FB06E6A4FB07E816EB08064FF030
:1056B000000858F10008E4FB01687642C8F1405840
:1056C00038BFA8F10108A2FB06E4A3FB08E52D19E9
:1056D0004FF0000454F10004E2FB0854A1FB05E67E
:1056E000A7FB04E818EB06084FF0000656F1000689
:1056F000E1FB048618F1200556F10006A809A8F17F
:105700001B08B10908F03F08B8F10A0F40EA8660AB
:105710001CD901EB0C51BDE8F08100BFFCF5EEE8AF
:10572000E2DDD8D3CFCBC7C3C0BDB9B6B4B1AEAC40
:10573000A9A7A5A3A19F9D9B9A9896959392908FB8
:105740008D8C8B898887868584838281A0FB006805
:1057500000FB01F208EB4208B8EB872807D53418A4
:1057600058EB0104D5D5401C51F10001D1E7341AA2
:1057700078EB0104CDD4401E71F10001C9E75FEA66
:105780004C0C5FEA9C5C0DD105D34FF0000001F09A
:105790000041BDE8F081BDE8F04170B5FFF78EFE35
:1057A0006DDBFFBEBDE8F0414FF0000000497047DF
:1057B0000000F87F10B591EA030F48BF83F0004363
:1057C0003FF530AB841A71EB030C07D212198CF041
:1057D000004C43EB0C03001B61EB0C01DFF8A4E170
:1057E0004FEA1154A4EB135C1EEA430F18BF9EEA64
:1057F000445F00F0B08023EA6E03524221EA045174
:10580000C3EB6E0338BF5B1EDCF1200E25D322FAFA
:105810000CFE10EB0E0043FA0CFE41EB0E01CCF136
:10582000200E03FA0EFE10EB0E0051F10001CCF138
:10583000200E29D412FA0EF201EB0451BDE81040FB
:1058400058BF7047401C1CBFB2F1004F7047002882
:105850000CBF491C20F00100704712EB020E43EB15
:10586000030218BF4FF0010E4EEA4202ACF1200CC9
:10587000DCF11E0E54D943FA0CFE10EB0E0051F170
:10588000FF31CCF11E0ED5D50EF1010E12FA0EFE2F
:10589000404141EB010101EB445C5FEA5C5C10D9E3
:1058A00010EBDE7001EB045138BFBEF1004FBDE8D4
:1058B000104018BF704700280CBF491C20F00100A1
:1058C000704730D24FEAD42C11F5001124F4006453
:1058D0001BD0B1FA81F20B3AA41AA41ED2F1200314
:1058E000914030FA03F31943904001EBCC71002C46
:1058F00001EB0451BDE81040A8BF704701F1C04161
:105900004FF0000001F000417047B0FA80F310FA48
:1059100003F100D110BDE41A173C4805C90AE4E7B9
:1059200001EB045110BD491001EB0451BDE81040DA
:105930004FEA300002E04FF0000170474A0008BF14
:105940000042F8D0B2F5001F28BF704701F00041B7
:105950004FF0000070479EEA445F07D011EA5E0FE7
:10596000BDE8104004BF002100207047BDE8104092
:1059700070B5FFF7A3FD00BF40DFF63E83F00041A6
:10598000104670470000E0FF43004FEAD30C4FEA97
:105990003C0C43401FBF40070CF1605113F0FE4F19
:1059A00070471CF0006F03D100200CF000417047DD
:1059B0000CF0004343EA507010B540EACC0000F010
:1059C0003CFA00BF000000924FEA0001FFF7C4BD9F
:1059D0004FF000414FF00000A1F50021704700009A
:1059E00090EA010F48BF81F0004100F1B482421AF1
:1059F0003CBF801A89184FEAD0524FF07F4C1CEA06
:105A0000410FA2EBD15318BF9CEA026F00F03B801C
:105A10004FF0004C4CEA00204CEA012121FA03FC33
:105A200010EB0C0C1ED202F1FF325FEA1C2040EB9F
:105A3000C25038BF70471CF07F0F4FEA400C18BFB0
:105A4000BCF17F4F38BF7047C3F12003994008BFB6
:105A500020F00100BCF17F4F38BF7047A0F1C0407B
:105A600000F031BA4FEA3C00000A40EBC25028BFB8
:105A70001CF0FF0F4FEA400CE6D018BFBCF17F4F7F
:105A800038BF7047EAE79CEA026F05D010EA5C0F66
:105A900008BF00F00040704710B500F0CEF900BF1D
:105AA00064FBBE3E401058BFC0F14040491058BF93
:105AB000C1F140418142EFF3008070474FF47F0C09
:105AC0001CEAD0121EBF1CEAD11392EA0C0F93EA13
:105AD0000C0F00F0858090EA010F48BF42F48072FD
